:100000009CC00000C1C00000BFC000000C947B0C6D
:10001000BBC00000B9C00000B7C00000B5C0000000
:10002000B3C00000B1C0000044C6000007C6000015
:10003000ABC00000A9C00000A7C00000A5C0000020
:10004000A3C00000A1C000009FC000009DC0000030
:100050009BC0000099C0000097C000000C94350CB4
:1000600093C0000091C000008FC000008DC0000050
:100070008BC0000089C0000087C0000085C0000060
:1000800083C0000081C000007FC000007DC0000070
:100090007BC0000079C0000077C0000075C0000080
:1000A00073C000000C94E90A6FC000001201100137
:1000B00002000008EB03442001000102DC010902F8
:1000C0003E00020100C032090400000102020100EA
:1000D000052400100104240206052406000107057A
:1000E00082030800FF09040100020A00000007055E
:1000F000040210000507058302100005040309042B
:1001000018034400650061006E0020004300610098
:100110006D0065007200610000001C034C0055007A
:1001200046004100200043004400430020004400FA
:1001300065006D006F000000A20B11241FBECFEF01
:10014000DAE0DEBFCDBF11E0A0E0B1E0E4E4F0E230
:1001500002C005900D92A636B107D9F712E0A6E6C7
:10016000B1E001C01D92A836B107E1F711E0CAE382
:10017000D1E004C02297FE010E94220DC833D107AE
:10018000C9F73BD10C9420103BCF089508950895F2
:10019000FC01E35BFE4F8081482F50E021E030E01E
:1001A00060E070E0C90184239523892B21F08091C0
:1001B0007C00822B05C090917C00822F8095892342
:1001C00080937C00220F331F6F5F7F4F6530710576
:1001D00049F742235323452B21F080917B00822B4A
:1001E00005C090917B00822F8095892380937B00AE
:1001F0000895CEDF80917A00806480937A008091A8
:100200007A0086FDFCCF9091780080917900382F9C
:1002100020E0290F311DC90108951F9384B7877FFE
:1002200084BF88E10FB6F89480936000109260005C
:100230000FBE10E880E090E00FB6F89410936100D4
:10024000809361000FBEDDD415BF15BF0E94DB0B8C
:100250000E94E20B0E94C70C2498259823982798A7
:100260006E9826985098519852985398549855984B
:1002700056983F9A3E9A209A219A229A84E4809333
:100280007C00EAE7F0E08081816080838081826089
:1002900080838081846080838081806880832C9AC1
:1002A0002D9A2B9A2F9A769A2E9A589A599A5C9A46
:1002B0005D9A5E9A1F910895EF92FF920F931F939C
:1002C000CF93DF93EC0187E090E093DFF3B013B1BD
:1002D0001095111F1127111F03B1E3B00E94750C77
:1002E0009C01220F331F280F391F8FEF2938380741
:1002F0001CF428E83FEF05C02937310514F028E742
:1003000030E01B9902C08C9A01C08C981E9902C0E3
:100310008E9A01C08E982097B1F4F5FE08C0112383
:1003200019F48AE090E00AC08EE190E007C0112342
:1003300019F484E190E002C088E290E090936F01AC
:1003400080936E0145C0C130D105D1F480916E011A
:1003500090916F018431910511F0889711F4C901D2
:1003600037C080916A0190916B01909581959F4F64
:1003700063E070E00E94D70CCB018C599F4F28C0DE
:10038000229721F5802F90E063E0969587956A95F6
:10039000E1F721E030E082279327482F41708E2D2E
:1003A00090E056E0969587955A95E1F78227932736
:1003B0008170413019F488E39FEF0AC0813019F44D
:1003C00084ED9EEF05C08CE99FEF02C081E090E0D4
:1003D0000E94B60B109273011092720183B190E0EB
:1003E000807190709093710180937001DF91CF9133
:1003F0001F910F91FF90EF9008952F923F924F928F
:100400005F926F927F928F929F92AF92BF92CF92A4
:10041000DF92EF92FF920F931F93DF93CF93CDB7AD
:10042000DEB7C950D1400FB6F894DEBF0FBECDBFC6
:10043000F4DE82E391E069E472E0C8D67894CC24DB
:10044000DD24F1E0AF2EB12CE3E02E2EE2E03E2ED3
:1004500082E391E07FD6182F90E00E94280D892B2F
:1004600061F0812F90E069E472E00E942F0D8AE034
:1004700090E069E472E00E942F0DC60164E670E02E
:100480000E94EB0C892B09F0A0C184E090E0B1DE62
:100490004C0185E090E0ADDE3C0187E090E0A9DE14
:1004A0007C0186E090E0A5DE8C0123B1C75FDE4FC2
:1004B0002883C950D14083B1C85FDE4F8883C850BC
:1004C000D14093B1C95FDE4F9883C750D140A3B1EB
:1004D000CA5FDE4FA883C650D140BCB1CB5FDE4FB0
:1004E000B883C550D14023B1CC5FDE4F2883C450C0
:1004F000D14059B049B089B1CD5FDE4F8883C35038
:10050000D14099B1CE5FDE4F9883C250D140A9B19E
:10051000CF5FDE4FA883C150D1400E94750CC80147
:1005200086599140813D910528F430926D012092C9
:100530006C0106C00B5F1F4F10936D0100936C019F
:10054000C701855690408F51934028F430926B013B
:1005500020926A0111C02AE0E216F10428F41092F8
:100560006B0110926A0108C086EF9FEFE80EF91E3A
:10057000F0926B01E0926A01C4018B599140813D78
:10058000910528F4309267012092660104C0909290
:10059000670180926601C3018B599140813D9105AD
:1005A00028F4309269012092680104C070926901B8
:1005B00060926801ADB7BEB794970FB6F894BEBF0E
:1005C0000FBEADBFEDB7FEB7319681E090E08C0F66
:1005D0009D1F12969C938E931197A0E0B1E0B38378
:1005E000A2838091660190916701958384838091B5
:1005F0006801909169019783868380916A01909147
:100600006B019187808780916C0190916D01938738
:100610008287842D90E0969587958A259B25817009
:10062000907095878487C75FDE4FB881C950D140ED
:100630008B2F90E064E0969587956A95E1F78A257F
:100640009B258170907097878687C85FDE4F2881D1
:10065000C850D140822F90E055E0969587955A95E5
:10066000E1F78A259B2581709070918B808BCE5FFE
:10067000DE4FA881C250D1408A2F90E045E0969588
:1006800087954A95E1F78A259B2581709070938B19
:10069000828BCA5FDE4FB881C650D1408B2F99271D
:1006A00087FD9095809590958827990F881F9927A9
:1006B000958B848BCF5FDE4F2881C150D140822F34
:1006C00090E026E0969587952A95E1F78A259B2567
:1006D00081709070978B868BCB5FDE4FA881C55061
:1006E000D1408A2F90E006E0969587950A95E1F72C
:1006F0008A259B2581709070918F808FB1E05B225D
:10070000528E138EC95FDE4F2881C750D140822F91
:1007100090E013E0969587951A95E1F78A259B2539
:1007200081709070958F848FCD5FDE4FA881C3500C
:10073000D1408A2F90E0B4E096958795BA95E1F77D
:100740008A259B2581709070978F868FCC5FDE4FB6
:10075000B881C450D1408B2F90E0A6E09695879544
:10076000AA95E1F78A259B258170907091A380A3BB
:1007700013A212A20E94830D8DB79EB784960FB666
:10078000F8949EBF0FBE8DBFCE01019669E472E062
:100790000E945B0D90EDC91697E0D90619F480E030
:1007A00090E007C0A0EACA16AFE0DA0621F481E0C3
:1007B00090E082DD0AC0B0E7CB16B7E1DB0629F492
:1007C00082E090E079DDCC24DD2482E391E051D514
:1007D000ACD40894C11CD11C3BCE82E391E0BDC5D2
:1007E00082E391E093C5DA01923049F0933061F0F1
:1007F0009130F9F4ECEAF0E022E130E01EC0EEEBDB
:10080000F0E02EE330E019C0813049F0813018F07B
:10081000823079F408C0ECEFF0E0849107C0E0E0AA
:10082000F1E0849103C0EAE1F1E08491282F30E007
:1008300004C0E0E0F0E020E030E0ED93FC93C9017B
:1008400008959C0140916202509163024617570738
:1008500018F4F90190E043C06115710511F0AB0186
:10086000F8CF8091E8008E778093E80040E050E078
:10087000F0CF80915B02882309F447C0853009F4EA
:1008800046C08091E80083FD44C08091E80082FD6D
:1008900036C08091E80080FF22C08091F3009091E3
:1008A000F200782F60E0292F30E0262B372B07C08D
:1008B00081918093F100415050402F5F3F4F41158F
:1008C000510519F02830310598F390E028303105B2
:1008D00009F491E08091E8008E778093E80041155B
:1008E000510539F6992329F60AC080915B028823C5
:1008F00061F0853061F08091E80083FD0AC080914D
:10090000E80082FFF2CF80E0089582E0089583E05E
:10091000089581E008959C01409162025091630224
:100920004617570718F4F90190E044C061157105A6
:1009300011F0AB01F8CF8091E8008E778093E8004A
:1009400040E050E0F0CF80915B02882309F448C07A
:10095000853009F447C08091E80083FD45C080914F
:10096000E80082FD37C08091E80080FF23C08091BD
:10097000F3009091F200782F60E0292F30E0262BD1
:10098000372B08C084918093F1003196415050403C
:100990002F5F3F4F4115510519F02830310590F375
:1009A00090E02830310509F491E08091E8008E77DD
:1009B0008093E8004115510531F6992321F60AC0CC
:1009C00080915B02882361F0853061F08091E800BE
:1009D00083FD0AC08091E80082FFF2CF80E0089595
:1009E00082E0089583E0089581E00895382F282F4C
:1009F0002EC0822F8F708093E900231721F4762F69
:100A0000942F50E006C07091EC009091ED00509151
:100A1000F00091FF1BC08091EB008E7F8093EB0074
:100A20008091ED008D7F8093ED008091EB008160DF
:100A30008093EB007093EC009093ED005093F000E6
:100A40008091EE0087FD02C080E008952F5F27307F
:100A500080F23F703093E90081E008950F931F9377
:100A6000CF93DF93062FEC0110E02AC098819923E1
:100A700029F16B81E981FA812C81892F8F70873070
:100A800018F5223010F452E001C056E040E028E0B2
:100A900030E003C04F5F220F331F2E173F07D0F304
:100AA0006295660F660F607C991F9927991F692BC5
:100AB0004295407F452B9ADF882331F01F5F2596B2
:100AC0001017A0F281E001C080E0DF91CF911F916B
:100AD0000F91089580915C0288239CF404C080915A
:100AE0005B028823B9F08091E80082FFF8CF809103
:100AF000E8008B778093E800089580915B0288235B
:100B000049F08091E80080FFF8CF8091E8008E776F
:100B10008093E80008954091E4005091E50024E6B8
:100B20008091EC0080FF24C08091E80080FD1EC011
:100B300080915B02882311F482E00895853011F4DE
:100B400083E008958091EB0085FF02C081E0089565
:100B50008091E4009091E5008417950709F3222322
:100B600011F484E008952150AC01DACF80E00895BB
:100B70008091E80082FFDCCFF9CFEF92FF920F93D4
:100B80001F934FD056D008ED10E0F80180818F7789
:100B9000808380818068808380818F7D808319BC81
:100BA00010925B0210925702109259021092580252
:100BB00080EEE82EF12CF70180818B7F8083F80195
:100BC00080818160808380E060E042E00FDFE1EEC1
:100BD000F0E080818E7F8083E2EEF0E080818160B2
:100BE0008083808188608083F70180818E7F80830D
:100BF000F8018081806180831F910F91FF90EF90B9
:100C00000895E8EDF0E080818F7E8083E7EDF0E0ED
:100C100080818160808384E082BF81E080935A027A
:100C2000ACCFE8EDF0E080818E7F80831092E2000F
:100C300008951092DA001092E10008951F920F9229
:100C40000FB60F9211241F932F933F934F935F93EF
:100C50006F937F938F939F93AF93BF93EF93FF9384
:100C60001091E9008091EC001092E9008091F00071
:100C7000877F8093F0007894E7D01092E90080910C
:100C8000F00088608093F0001F701093E900FF91DE
:100C9000EF91BF91AF919F918F917F916F915F91F4
:100CA0004F913F912F911F910F900FBE0F901F906A
:100CB00018951F920F920FB60F9211242F933F9306
:100CC0004F935F936F937F938F939F93AF93BF9354
:100CD000EF93FF938091E10082FF0AC08091E200D0
:100CE00082FF06C08091E1008B7F8093E1001CD2DF
:100CF0008091DA0080FF1DC08091D80080FF19C06C
:100D00008091DA008E7F8093DA008091D90080FF95
:100D10000CC080E189BD82E189BD09B400FEFDCF30
:100D200081E080935B0231DA04C019BC10925B024F
:100D30002DDA8091E10080FF18C08091E20080FFF1
:100D400014C08091E2008E7F8093E2008091E200E7
:100D500080618093E2008091D80080628093D80007
:100D600019BC85E080935B02DFD18091E10084FFB4
:100D70002FC08091E20084FF2BC080E189BD82E119
:100D800089BD09B400FEFDCF8091D8008F7D80938E
:100D9000D8008091E1008F7E8093E1008091E20095
:100DA0008F7E8093E2008091E20081608093E20078
:100DB00080915702882311F084E007C08091E300FE
:100DC00087FD02C081E001C083E080935B02ACD16B
:100DD0008091E10083FF27C08091E20083FF23C060
:100DE0008091E100877F8093E10082E080935B0245
:100DF000109257028091E1008E7F8093E1008091F4
:100E0000E2008E7F8093E2008091E2008061809317
:100E1000E20080E060E042E0E9DD8091F00088607F
:100E20008093F00081D1FF91EF91BF91AF919F919D
:100E30008F917F916F915F914F913F912F910F9083
:100E40000FBE0F901F9018951F93DF93CF93CDB7D0
:100E5000DEB7AC970FB6F894DEBF0FBECDBFECE5A2
:100E6000F2E08091F100819322E0E436F207C9F7C5
:100E7000B4DC8091E80083FF3FC180915C02309137
:100E80005D02353009F48DC0363040F43130E1F187
:100E9000313070F0333009F02FC136C0383009F4EA
:100EA000FDC0393009F40CC1363009F025C19CC0B1
:100EB000803821F0823809F01FC108C09091580293
:100EC000809159028823B1F0926014C08091600231
:100ED0008F70873008F010C18093E9008091EB009B
:100EE00090E025E0969587952A95E1F7982F9170E7
:100EF0001092E9008091E800877F8093E80090934A
:100F0000F1001092F100D5C0882319F0823009F069
:100F1000F3C090E08F719070009721F0029709F074
:100F2000EBC00CC080915E02813009F0E5C01092E8
:100F30005902333081F5809359022DC080915E02B1
:100F4000882349F5209160022F70822F81508630CE
:100F500008F0D2C02093E9008091EB0080FF1BC015
:100F6000333021F48091EB00806213C08091EB005C
:100F700080618093EB0081E090E002C0880F991FB0
:100F80002A95E2F78093EA001092EA008091EB0044
:100F900088608093EB001092E9008091E800877FE1
:100FA0008BC0882309F0A8C010915E021F77809142
:100FB000E3008078812B8093E3008091E800877FB5
:100FC0008093E80087DD8091E80080FFFCCF80916E
:100FD000E30080688093E300112311F482E001C0F4
:100FE00083E080935B0288C08058823008F084C020
:100FF00080915E0290915F0223E08C3D920709F0A0
:1010000033C083E08C838AE28B837FB7F894DE0160
:1010100015966EE040E050E011E2E62FF0E010930C
:101020005700849140FF03C082958F706F5F8F706F
:10103000282F30E08A3018F0C901C79602C0C901D4
:10104000C0968D939D934F5F5F4F4431510529F7B3
:101050007FBF8091E800877F8093E800CE010396F0
:101060006AE270E0EEDB14C0609160027091610290
:10107000AE014F5F5F4FB7DBBC01009709F43CC086
:101080008091E800877F8093E80089819A8143DC22
:101090008091E8008B778093E8002EC0803861F55E
:1010A0008091E800877F8093E800809157028093C9
:1010B000F1008091E8008E778093E8000BDD1CC082
:1010C0008823D1F490915E029230B0F48091E800D0
:1010D000877F8093E80090935702FCDC8091570251
:1010E000882331F48091E30087FD02C081E001C0D4
:1010F00084E080935B0274DB8091E80083FF0AC088
:101100008091E800877F8093E8008091EB00806207
:101110008093EB00AC960FB6F894DEBF0FBECDBF48
:10112000CF91DF911F91089508951F9380915B02E5
:10113000882371F01091E9008091EC001092E90091
:101140008091E80083FF01C07FDE1F701093E900EB
:101150001F910895FC0180915B02843099F5848988
:101160009589A689B7890097A105B10559F18681AE
:101170008F708093E9008091E80082FF23C0409146
:10118000F3002091F200942F80E030E0822B932B2B
:10119000892B19F46FEF7FEF04C08091F100682F65
:1011A00070E04091F3002091F200942F80E030E055
:1011B000822B932B892B41F48091E8008B778093CD
:1011C000E80002C06FEF7FEFCB010895FB012EE036
:1011D000DB011D922A95E9F723E0238327E739E015
:1011E0003187208729EF38E03387228795878487E6
:1011F0000895FC0184859585ADDF9C0197FF02C0B1
:101200002EEF3FEFC90108950895FC0180915B0224
:10121000843051F584899589A689B7890097A105FD
:10122000B10511F181818F708093E9004091F30045
:101230002091F200942F80E030E0822B932B892BB9
:10124000A9F09091E8008091E8008E778093E80003
:1012500095FD0CC060DC982F882349F48091E8004C
:101260008E778093E80003C092E001C090E0892F60
:101270000895FC0180915B02843091F48489958902
:10128000A689B7890097A105B10551F081818F70BA
:101290008093E9008091E80080FF02C0CF01B5CFC4
:1012A00008951F93FC01162F80915B028430E1F4B6
:1012B00084899589A689B7890097A105B105A1F010
:1012C00081818F708093E9008091E80085FD08C0DE
:1012D0008091E8008E778093E8001DDC882329F454
:1012E0001093F10080E001C082E01F910895282F43
:1012F000FB0184859585622FD4DF882319F420E0D3
:1013000030E002C02FEF3FEFC9010895CF93DF9384
:10131000EC014096FC018BE0DF011D928A95E9F714
:1013200082E08C83898783E08E87CE01019661E01D
:1013300095DB882371F0CE01069661E08FDB882370
:1013400041F0CE010B9661E089DB882319F081E042
:1013500001C080E0DF91CF910895CF93DF93EC013E
:101360008091E80083FFA4C0888190E02091600212
:10137000309161022817390709F09AC080915D0207
:10138000813269F0823220F4803209F091C03CC091
:10139000823209F46BC0833209F08AC07BC080912D
:1013A0005C02813A09F084C08091E800877F8093D5
:1013B000E8008091E80080FFFCCF8C899D89AE8990
:1013C000BF898093F100292F3A2F4B2F5527209367
:1013D000F1009D01442755272093F1008B2F992779
:1013E000AA27BB278093F100888D8093F100898D17
:1013F0008093F1008A8D8093F1008091E8008E77D0
:101400008093E80067DB54C080915C02813209F070
:101410004FC08091E800877F8093E80005C08091ED
:101420005B02882309F444C08091E80082FFF7CF73
:101430008091F1009091F1002091F1003091F10044
:101440008C8B9D8B2E8B3F8B8091F100888F8091B0
:10145000F100898F8091F1008A8F8091E8008B776D
:101460008093E80037DBCE01CFDE22C080915C02A2
:101470008132F1F48091E800877F8093E8002ADBD5
:1014800080915E0290915F02998B888BCE010E94C1
:10149000C7000EC080915C02813251F48091E80057
:1014A000877F8093E80016DBCE0160915E02ACDEA0
:1014B000DF91CF9108959C01442737FD4095542F2B
:1014C00060E47FE180E090E099D2C90122E02093BE
:1014D000C00021E02093C1001092C2002093C300FD
:1014E0001092C400EFEBF0E090838093D10063E0B2
:1014F00070E05DD270836093CF000895CB011092AD
:101500007200D9CFEF92FF920F931F937A018B0154
:101510008091C00080648093C00080E895E20197CC
:10152000F1F78091C0008F7B8093C00080E699E046
:101530000197F1F72150304041E050E060E070E069
:1015400004C0440F551F661F771F2A95D2F720E667
:1015500039E0E0ECF2E125C0DB01CA018E219F21D8
:10156000A023B1230097A105B10539F08091C000F7
:1015700080648093C000CF0106C08091C000806469
:101580008093C000C9010197F1F78091C0008F7B63
:101590008093C000C9010197F1F77695679557953B
:1015A00047954115510561057105B1F68091C0005F
:1015B00080648093C00080E699E00197F1F7809104
:1015C000C0008F7B8093C0001F910F91FF90EF9020
:1015D00008951F920F920FB60F9211242F933F93ED
:1015E0008F939F93EF93FF932CB122952695269589
:1015F000237020952170809176019091770101965A
:10160000909377018093760180917501853618F06B
:1016100086E080937401809174018430C9F1853033
:1016200030F4823059F0833009F065C017C085303E
:1016300009F454C0863009F05EC057C0222309F077
:101640005EC080917601909177018436910508F40F
:1016500047C010924202109275011CC0213009F05F
:101660004CC080917501E82FF0E020917601309117
:101670007701EE0FFF1FE858FE4F318320838F5F05
:1016800080937501109277011092760184E023C057
:101690002223C9F480917501E82FF0E020917601B2
:1016A00030917701EE0FFF1FE858FE4F3183208302
:1016B0008F5F80937501109277011092760183E01D
:1016C000809374011AC080917601909177018536DC
:1016D0009105A8F085E08093740111C0222379F46C
:1016E000109277011092760108C081E08093420247
:1016F00085E080937401222311F4479A01C0479832
:10170000FF91EF919F918F913F912F910F900FBE7D
:101710000F901F90189508959B01AC0190E00AC0AE
:10172000822F8370980F82E05695479537952795BD
:101730008A95D1F7211531054105510589F7892F82
:101740008370089583E492E0E6CFEF92FF920F93C7
:101750001F937B018C019A0184E492E0B801A701F8
:10176000D1DE1F910F91FF90EF900895EF92FF92BD
:101770000F931F935FEFE52E53E0F52EE822F92239
:10178000B701882777FD8095982FC6DF90E0982FC6
:101790008827990F990FE80EF91E0027F7FC00958E
:1017A000102FC801B7014CE050E0CFDF1F910F911F
:1017B000FF90EF90089584E492E066E270E09EDE90
:1017C0003E9A089580E58CBD1DBC209A219A229AEC
:1017D00014BC84E085BD16BC8FE387BD81E0809397
:1017E0006E00089580958EBD0DB407FEFDCF08955F
:1017F0000F931F93CF93DF938C019C0197FF04C03D
:1018000022273327281B390BC0E0D0E0C9016AE04A
:1018100070E0E1D0FC01E55AFE4F8081FE01EC59F9
:10182000FD4F8083C9016AE070E0D5D09B01FE01C5
:1018300031966115710559F4CF0105C0FC01EC59D1
:10184000FD4F1082019684309105C4F304C0EF016E
:10185000E430F105D9F617FF03C080E480936702F6
:10186000DF91CF911F910F9108951F920F920FB6A4
:101870000F9211242F933F934F935F936F937F9316
:101880008F939F93AF93BF93EF93FF932091450264
:1018900081E090E002C0880F991F2A95E2F7A2DF4D
:1018A000E0914502F0E0EC59FD4F80819BDF2898E4
:1018B000289A809145028F5F80934502809145026E
:1018C000843011F410924502FF91EF91BF91AF91D6
:1018D0009F918F917F916F915F914F913F912F9148
:1018E0000F900FBE0F901F901895209146023091D7
:1018F0004702C90108951F920F920FB60F9211244B
:101900002F933F934F935F936F937F938F939F9307
:10191000AF93BF93EF93FF934A9B08C04B9902C0CC
:101920008CE401C082E58093480220C04B9B0AC032
:10193000809148028C34C1F4809146029091470214
:10194000019709C080914802823571F48091460266
:1019500090914702019690934702809346028091AE
:1019600046029091470244DF10924802FF91EF91A6
:10197000BF91AF919F918F917F916F915F914F91A7
:101980003F912F910F900FBE0F901F901895E8E692
:10199000F0E0808181608083D898EA9A52985398C9
:1019A0005A9A5B9A809146029091470221CFAA1BD6
:1019B000BB1B51E107C0AA1FBB1FA617B70710F03A
:1019C000A61BB70B881F991F5A95A9F7809590956C
:1019D000BC01CD01089597FB092E07260AD077FD9B
:1019E00004D0E5DF06D000201AF4709561957F4F92
:1019F0000895F6F7909581959F4F0895A1E21A2ECC
:101A0000AA1BBB1BFD010DC0AA1FBB1FEE1FFF1FA2
:101A1000A217B307E407F50720F0A21BB30BE40BF2
:101A2000F50B661F771F881F991F1A9469F7609539
:101A30007095809590959B01AC01BD01CF010895F3
:101A4000EE0FFF1F0590F491E02D099485FD4AC229
:101A50008062911147C281568A51E0F708950F9331
:101A60001F93CF93DF938C01EB018B8181FF1BC010
:101A700082FF0DC02E813F818C819D8128173907FF
:101A800064F4E881F9810193F983E88306C0E8856D
:101A9000F985802F0995892B31F48E819F810196DC
:101AA0009F838E8302C00FEF1FEFC801DF91CF919C
:101AB0001F910F910895EF92FF920F931F93CF9371
:101AC000DF937C018B01DB0113968C9181FD03C0B8
:101AD000CFEFDFEF13C0C0E0D0E00BC0D801189605
:101AE000ED91FC911997B8010995892B11F0CFEF71
:101AF000DFEFF70181917F01882381F7CE01CDB718
:101B0000DEB7E6E08EC2AEE0B0E0E8E8FDE06FC22E
:101B10000D891E8986E08C831A8309838FEF9FE7E6
:101B20009E838D839E01275E3F4FCE0101966F8974
:101B3000788DA90109D02F813885020F131FF80174
:101B400010822E96E4E06FC2ABE0B0E0E9EAFDE07F
:101B500040C23C012B015A01FC011782168283818D
:101B600081FD03C06FEF7FEFB9C19AE0892E1E019E
:101B70000894211C311CF3012381F20123FD85917E
:101B800023FF81912F01882309F4A5C1853239F4FF
:101B900023FD859123FF81912F01853221F490E06F
:101BA000B3015DDFE8CF982FFF24EE249924FFE1F5
:101BB000FF15D0F09B3269F09C3228F4903259F036
:101BC000933291F40EC09D3249F0903369F441E0B4
:101BD00024C052E0F52A84E0F82A28C098E0F92AC7
:101BE00025C0E0E1FE2A22C0F7FC29C0892F8053DE
:101BF0008A3070F4F6FE05C0989C902C1124980E43
:101C000015C0E89CE02C1124E80EF0E2FF2A0EC07B
:101C10009E3229F4F6FC5FC140E4F42A07C09C36EA
:101C200019F450E8F52A02C0983649F4F20123FD70
:101C3000959123FF91912F01992309F0B8CF892F16
:101C40008554833018F08052833038F444E050E0FB
:101C5000A40EB51E5FE359830FC0933631F093375E
:101C600079F0933509F052C01FC0F5018081898356
:101C700042E050E0A40EB51E610101E010E011C089
:101C8000F501C080D180F6FC03C06FEF7FEF02C08A
:101C9000692D70E042E050E0A40EB51EC60130D1BF
:101CA0008C015FE7F52213C0F501C080D180F6FCFE
:101CB00003C06FEF7FEF02C0692D70E042E050E09B
:101CC000A40EB51EC60111D18C0150E8F52AF3FE11
:101CD00006C018C080E290E0B301C1DEEA948E2D08
:101CE00090E008171907B0F30DC0F601F7FC8591D5
:101CF000F7FE81916F0190E0B301B1DEE110EA944B
:101D0000015010400115110581F7E2C0943611F021
:101D1000993661F5F7FE08C0F501208131814281D5
:101D2000538184E090E00AC0F501808191819C019B
:101D3000442737FD4095542F82E090E0A80EB91E4D
:101D40009FE6F92257FF09C050954095309521959F
:101D50003F4F4F4F5F4FE0E8FE2ACA01B901A10192
:101D60002AE030E0D8D0D82ED2183FC0953729F4D9
:101D70001F2D1F7E2AE030E01DC01F2D197F9F36CA
:101D800061F0903720F4983509F0A5C00FC0903766
:101D900039F0983709F09FC004C028E030E00AC04D
:101DA000106114FD146020E130E004C014FD1660E1
:101DB00020E132E017FF08C0F50160817181828166
:101DC000938144E050E008C0F50180819181BC011D
:101DD00080E090E042E050E0A40EB51EA1019BD04F
:101DE000D82ED2188FE7F82EF122F6FE0BC05EEF48
:101DF000F522D91438F4F4FE07C0F2FC05C08FEECA
:101E0000F82202C01D2D01C0192DF4FE0DC0FE01E7
:101E1000ED0DF11D8081803319F499EEF92208C08F
:101E20001F5FF2FE05C003C08F2D867809F01F5F8B
:101E30000F2DF3FC13C0F0FE0EC01E1510F09D2CEC
:101E40000AC09D2C9E0C911A1E2D05C080E290E0C8
:101E5000B30105DE1F5F1E15C8F304C01E1510F484
:101E6000E11A01C0EE2404FF0EC080E390E0B3014C
:101E7000F6DD02FF1BC001FD03C088E790E00EC045
:101E800088E590E00BC0802F867881F001FF02C0CA
:101E90008BE201C080E2F7FC8DE290E0B301DFDD70
:101EA00005C080E390E0B301DADD9A94D914C8F359
:101EB000DA94F101ED0DF11D808190E0B301CFDDE9
:101EC000DD20B1F705C080E290E0B301C8DDEA94FF
:101ED000EE20C9F750CEF30166817781CB012B96B6
:101EE000E2E193C0992788270895FC01059061508D
:101EF00070400110D8F7809590958E0F9F1F089520
:101F0000FC016150704001900110D8F780959095C8
:101F10008E0F9F1F0895FA01AA27283051F1203112
:101F200081F1E8946F936E7F6E5F7F4F8F4F9F4F6D
:101F3000AF4FB1E03ED0B4E03CD0670F781F891FAF
:101F40009A1FA11D680F791F8A1F911DA11D6A0F7D
:101F5000711D811D911DA11D20D009F468943F9130
:101F60002AE0269F11243019305D3193DEF6CF012F
:101F70000895462F4770405D4193B3E00FD0C9F7F5
:101F8000F6CF462F4F70405D4A3318F0495D31FD62
:101F90004052419302D0A9F7EACFB4E0A6959795B5
:101FA000879577956795BA95C9F70097610571058B
:101FB00008959B01AC010A2E0694579547953795D5
:101FC0002795BA95C9F7620F731F841F951FA01D2F
:101FD00008952F923F924F925F926F927F928F92CD
:101FE0009F92AF92BF92CF92DF92EF92FF920F93A8
:101FF0001F93CF93DF93CDB7DEB7CA1BDB0B0FB6B2
:10200000F894DEBF0FBECDBF09942A88398848886E
:102010005F846E847D848C849B84AA84B984C88404
:10202000DF80EE80FD800C811B81AA81B981CE0FFB
:10203000D11D0FB6F894DEBF0FBECDBFED010895E0
:04204000F894FFCF42
:10204400256420256420256420256420256420251A
:1020540064202564202564202564202564202564CB
:102064002025642025642025642025642025640D12
:102074000A0000831000000104100000018208001F
:10208400000100000000000000000000000001004A
:1020940000040506072021222324253F065B4F6602
:0620A4006D7D277F6F0037
:00000001FF
