:100000009CC00000C1C00000BFC000000C94250CC3
:10001000BBC00000B9C00000B7C00000B5C0000000
:10002000B3C00000B1C00000EEC50000B1C50000C3
:10003000ABC00000A9C00000A7C00000A5C0000020
:10004000A3C00000A1C000009FC000009DC0000030
:100050009BC0000099C0000097C000000C94DF0B0B
:1000600093C0000091C000008FC000008DC0000050
:100070008BC0000089C0000087C0000085C0000060
:1000800083C0000081C000007FC000007DC0000070
:100090007BC0000079C0000077C0000075C0000080
:1000A00073C000000C94930A6FC00000120110018D
:1000B00002000008EB03442001000102DC010902F8
:1000C0003E00020100C032090400000102020100EA
:1000D000052400100104240206052406000107057A
:1000E00082030800FF09040100020A00000007055E
:1000F000040210000507058302100005040309042B
:1001000018034400650061006E0020004300610098
:100110006D0065007200610000001C034C0055007A
:1001200046004100200043004400430020004400FA
:1001300065006D006F0000004C0B11241FBECFEF57
:10014000DAE0DEBFCDBF11E0A0E0B1E0E8E9FFE119
:1001500002C005900D92A636B107D9F712E0A6E6C7
:10016000B1E001C01D92A036B107E1F711E0CAE38A
:10017000D1E004C02297FE010E94CC0CC833D10705
:10018000C9F73DD10C94CA0F3BCF08950895089547
:10019000FC01E35BFE4F8081482F50E021E030E01E
:1001A00060E070E0C90184239523892B21F08091C0
:1001B0007C00822B05C090917C00822F8095892342
:1001C00080937C00220F331F6F5F7F4F6530710576
:1001D00049F742235323452B21F080917B00822B4A
:1001E00005C090917B00822F8095892380937B00AE
:1001F0000895CEDF80917A00806480937A008091A8
:100200007A0086FDFCCF9091780080917900382F9C
:1002100020E0290F311DC90108951F9384B7877FFE
:1002200084BF88E10FB6F89480936000109260005C
:100230000FBE10E880E090E00FB6F89410936100D4
:10024000809361000FBE87D415BF15BF0E94850B38
:100250000E948C0B0E94710C249825982398279853
:100260006E9826985098519852985398549855984B
:1002700056983F9A3E9A209A219A229A84E4809333
:100280007C00EAE7F0E08081816080838081826089
:1002900080838081846080838081806880832C9AC1
:1002A0002D9A2B9A2F9A769A2E9A589A599A5C9A46
:1002B0005D9A5E9A1F910895CF92DF92EF92FF921E
:1002C0000F931F93CF93DF93EC0187E090E091DFD2
:1002D0007C01D3B013B11095111F1127111F03B169
:1002E000C3B00E941F0C9C01220F331F280F391F1F
:1002F0008FEF293838071CF428E83FEF05C029376D
:10030000310514F028E730E01B9902C08C9A01C037
:100310008C981E9902C08E9A01C08E982097B1F4D5
:10032000D5FE08C0112319F48AE090E00AC08EE1DE
:1003300090E007C0112319F484E190E002C088E244
:1003400090E0909367018093660142C0C130D1056F
:10035000B9F480916601909167018431910511F0A3
:10036000889711F4C90134C0882799278E199F09ED
:1003700063E070E00E94810CCB018C599F4F28C034
:10038000229721F5802F90E063E0969587956A95F6
:10039000E1F721E030E082279327482F41708C2D30
:1003A00090E056E0969587955A95E1F78227932736
:1003B0008170413019F488E39FEF0AC0813019F44D
:1003C00084ED9EEF05C08CE99FEF02C081E090E0D4
:1003D0000E94600B10926B0110926A0183B190E051
:1003E000807190709093690180936801DF91CF9143
:1003F0001F910F91FF90EF90DF90CF9008952F9273
:100400003F924F925F926F927F928F929F92AF92A4
:10041000BF92CF92DF92EF92FF920F931F93DF93E1
:10042000CF93CDB7DEB7C750D1400FB6F894DEBF3B
:100430000FBECDBFF2DE82E391E061E472E070D6E0
:100440007894EE24FF2411E0C12ED12C82E391E0B8
:100450002BD6182F90E00E94D20C892B61F0812FAF
:1004600090E061E472E00E94D90C8AE090E061E4DF
:1004700072E00E94D90CC70164E670E00E94950CFE
:10048000892B09F04CC184E090E0B3DE2C0185E0BB
:1004900090E0AFDE3C0187E090E0ABDE4C0186E00F
:1004A00090E0A7DE5C0133B023B1C95FDE4F288343
:1004B000C750D14083B1CA5FDE4F8883C650D14058
:1004C00093B1CB5FDE4F9883C550D140ACB1CC5FC8
:1004D000DE4FA883C450D140B3B1CD5FDE4FB883A7
:1004E000C350D14019B109B129B1CE5FDE4F288385
:1004F000C250D14029B089B1CF5FDE4F8883C1504F
:10050000D1400E941F0C9C01220F331F280F391F5E
:100510009FEF213039071CF421E03FEF06C0A1E036
:1005200021303A0714F02FEF30E01B9902C0A901E7
:1005300004C044275527421B530B8DB79EB78497A1
:100540000FB6F8949EBF0FBE8DBFEDB7FEB73196C4
:1005500081E090E08C0F9D1FADB7BEB712969C93C3
:100560008E931197A0E0B1E0B383A28355824482B9
:100570007782668291868086B386A286802F90E0FD
:10058000969587958C259D25817090709587848799
:10059000832D90E074E0969587957A95E1F78C2508
:1005A0009D258170907097878687C95FDE4FB881DF
:1005B000C750D1408B2F90E065E0969587956A955E
:1005C000E1F78C259D2581709070918B808B822D19
:1005D00090E055E0969587955A95E1F78C259D25F5
:1005E00081709070938B828BCB5FDE4F2881C550DA
:1005F000D140822F992787FD9095809590958827E7
:10060000990F881F9927958B848BCF5FDE4FA88128
:10061000C150D1408A2F90E026E0969587952A9583
:10062000E1F78C259D2581709070978B868BCC5F30
:10063000DE4FB881C450D1408B2F90E006E09695F4
:1006400087950A95E1F78C259D2581709070918F93
:10065000808F1170128F138ECA5FDE4F2881C650B3
:10066000D140822F90E013E0969587951A95E1F797
:100670008C259D2581709070958F848FCE5FDE4F85
:10068000A881C250D1408A2F90E0B4E0969587951A
:10069000BA95E1F78C259D2581709070978F868F94
:1006A000CD5FDE4FB881C350D1408B2F90E0A6E0E4
:1006B00096958795AA95E1F78C259D258170907078
:1006C00091A380A342A313A20E942D0D8DB79EB7C4
:1006D00084960FB6F8949EBF0FBE8DBFCE010196D3
:1006E00061E472E00E94050D90EDE91697E0F906CD
:1006F00019F480E090E007C0A0EAEA16AFE0FA063D
:1007000021F481E090E0D8DD0AC0B0E7EB16B7E154
:10071000FB0629F482E090E0CFDDEE24FF2482E3A3
:1007200091E051D5ACD40894E11CF11C8FCE82E34A
:1007300091E0BDC582E391E093C5DA01923049F0C2
:10074000933061F09130F9F4ECEAF0E022E130E02E
:100750001EC0EEEBF0E02EE330E019C0813049F02E
:10076000813018F0823079F408C0ECEFF0E0849129
:1007700007C0E0E0F1E0849103C0EAE1F1E0849198
:10078000282F30E004C0E0E0F0E020E030E0ED931E
:10079000FC93C90108959C0140915A0250915B025B
:1007A0004617570718F4F90190E043C06115710529
:1007B00011F0AB01F8CF8091E8008E778093E800CC
:1007C00040E050E0F0CF80915302882309F447C005
:1007D000853009F446C08091E80083FD44C08091D3
:1007E000E80082FD36C08091E80080FF22C0809141
:1007F000F3009091F200782F60E0292F30E0262B53
:10080000372B07C081918093F100415050402F5FFA
:100810003F4F4115510519F02830310598F390E00C
:100820002830310509F491E08091E8008E778093BB
:10083000E8004115510539F6992329F60AC080913F
:100840005302882361F0853061F08091E80083FDD8
:100850000AC08091E80082FFF2CF80E0089582E034
:10086000089583E0089581E008959C0140915A0223
:1008700050915B024617570718F4F90190E044C005
:100880006115710511F0AB01F8CF8091E8008E770A
:100890008093E80040E050E0F0CF8091530288233D
:1008A00009F448C0853009F447C08091E80083FD11
:1008B00045C08091E80082FD37C08091E80080FF4C
:1008C00023C08091F3009091F200782F60E0292FEF
:1008D00030E0262B372B08C084918093F1003196AD
:1008E000415050402F5F3F4F4115510519F02830BE
:1008F000310590F390E02830310509F491E08091C2
:10090000E8008E778093E8004115510531F6992370
:1009100021F60AC080915302882361F0853061F08E
:100920008091E80083FD0AC08091E80082FFF2CF49
:1009300080E0089582E0089583E0089581E00895BD
:10094000382F282F2EC0822F8F708093E900231715
:1009500021F4762F942F50E006C07091EC00909116
:10096000ED005091F00091FF1BC08091EB008E7F55
:100970008093EB008091ED008D7F8093ED0080915E
:10098000EB0081608093EB007093EC009093ED009E
:100990005093F0008091EE0087FD02C080E0089542
:1009A0002F5F273080F23F703093E90081E0089597
:1009B0000F931F93CF93DF93062FEC0110E02AC013
:1009C0009881992329F16B81E981FA812C81892F02
:1009D0008F70873018F5223010F452E001C056E0D5
:1009E00040E028E030E003C04F5F220F331F2E1796
:1009F0003F07D0F36295660F660F607C991F9927B9
:100A0000991F692B4295407F452B9ADF882331F04F
:100A10001F5F25961017A0F281E001C080E0DF91F2
:100A2000CF911F910F9108958091540288239CF4D7
:100A300004C0809153028823B9F08091E80082FFBE
:100A4000F8CF8091E8008B778093E800089580913B
:100A50005302882349F08091E80080FFF8CF80910D
:100A6000E8008E778093E80008954091E40050916B
:100A7000E50024E68091EC0080FF24C08091E8002E
:100A800080FD1EC080915302882311F482E00895F6
:100A9000853011F483E008958091EB0085FF02C05A
:100AA00081E008958091E4009091E5008417950716
:100AB00009F3222311F484E008952150AC01DACF28
:100AC00080E008958091E80082FFDCCFF9CFEF92BB
:100AD000FF920F931F934FD056D008ED10E0F8010E
:100AE00080818F77808380818068808380818F7D03
:100AF000808319BC1092530210924F02109251023F
:100B00001092500280EEE82EF12CF70180818B7F4D
:100B10008083F80180818160808380E060E042E032
:100B20000FDFE1EEF0E080818E7F8083E2EEF0E087
:100B3000808181608083808188608083F7018081EB
:100B40008E7F8083F8018081806180831F910F9167
:100B5000FF90EF900895E8EDF0E080818F7E808334
:100B6000E7EDF0E080818160808384E082BF81E0F6
:100B700080935202ACCFE8EDF0E080818E7F8083DD
:100B80001092E20008951092DA001092E1000895A8
:100B90001F920F920FB60F9211241F932F933F9322
:100BA0004F935F936F937F938F939F93AF93BF9375
:100BB000EF93FF931091E9008091EC001092E9000F
:100BC0008091F000877F8093F0007894E7D01092B6
:100BD000E9008091F00088608093F0001F7010930E
:100BE000E900FF91EF91BF91AF919F918F917F911C
:100BF0006F915F914F913F912F911F910F900FBE79
:100C00000F901F9018951F920F920FB60F921124FC
:100C10002F933F934F935F936F937F938F939F9304
:100C2000AF93BF93EF93FF938091E10082FF0AC0DF
:100C30008091E20082FF06C08091E1008B7F80936B
:100C4000E1001CD28091DA0080FF1DC08091D800A5
:100C500080FF19C08091DA008E7F8093DA00809146
:100C6000D90080FF0CC080E189BD82E189BD09B453
:100C700000FEFDCF81E08093530287DA04C019BCE7
:100C80001092530283DA8091E10080FF18C08091B6
:100C9000E20080FF14C08091E2008E7F8093E2002A
:100CA0008091E20080618093E2008091D8008062B0
:100CB0008093D80019BC85E080935302DFD18091E6
:100CC000E10084FF2FC08091E20084FF2BC080E10F
:100CD00089BD82E189BD09B400FEFDCF8091D800B5
:100CE0008F7D8093D8008091E1008F7E8093E1001A
:100CF0008091E2008F7E8093E2008091E20081602B
:100D00008093E20080914F02882311F084E007C0B5
:100D10008091E30087FD02C081E001C083E0809301
:100D20005302ACD18091E10083FF27C08091E200A3
:100D300083FF23C08091E100877F8093E10082E000
:100D40008093530210924F028091E1008E7F809336
:100D5000E1008091E2008E7F8093E2008091E200CA
:100D600080618093E20080E060E042E0E9DD809114
:100D7000F00088608093F00081D1FF91EF91BF91E6
:100D8000AF919F918F917F916F915F914F913F9123
:100D90002F910F900FBE0F901F9018951F93DF9308
:100DA000CF93CDB7DEB7AC970FB6F894DEBF0FBECA
:100DB000CDBFE4E5F2E08091F100819322E0EC35D3
:100DC000F207C9F7B4DC8091E80083FF3FC180914E
:100DD000540230915502353009F48DC0363040F45C
:100DE0003130E1F1313070F0333009F02FC136C0CD
:100DF000383009F4FDC0393009F40CC1363009F03F
:100E000025C19CC0803821F0823809F01FC108C07C
:100E100090915002809151028823B1F0926014C0E9
:100E2000809158028F70873008F010C18093E900DC
:100E30008091EB0090E025E0969587952A95E1F763
:100E4000982F91701092E9008091E800877F80933D
:100E5000E8009093F1001092F100D5C0882319F0BA
:100E6000823009F0F3C090E08F719070009721F00C
:100E7000029709F0EBC00CC080915602813009F056
:100E8000E5C010925102333081F5809351022DC09C
:100E900080915602882349F5209158022F70822FA5
:100EA0008150863008F0D2C02093E9008091EB0099
:100EB00080FF1BC0333021F48091EB00806213C0AF
:100EC0008091EB0080618093EB0081E090E002C0B4
:100ED000880F991F2A95E2F78093EA001092EA00A2
:100EE0008091EB0088608093EB001092E900809184
:100EF000E800877F8BC0882309F0A8C010915602B4
:100F00001F778091E3008078812B8093E3008091AC
:100F1000E800877F8093E80087DD8091E80080FF0C
:100F2000FCCF8091E30080688093E300112311F4EB
:100F300082E001C083E08093530288C080588230F1
:100F400008F084C0809156029091570223E08C3DB6
:100F5000920709F033C083E08C838AE28B837FB7EA
:100F6000F894DE0115966EE040E050E011E2E62FC5
:100F7000F0E010935700849140FF03C082958F707A
:100F80006F5F8F70282F30E08A3018F0C901C79644
:100F900002C0C901C0968D939D934F5F5F4F44314E
:100FA000510529F77FBF8091E800877F8093E80093
:100FB000CE0103966AE270E0EEDB14C06091580245
:100FC00070915902AE014F5F5F4FB7DBBC010097D4
:100FD00009F43CC08091E800877F8093E800898114
:100FE0009A8143DC8091E8008B778093E8002EC0E3
:100FF000803861F58091E800877F8093E8008091D8
:101000004F028093F1008091E8008E778093E80092
:101010000BDD1CC08823D1F4909156029230B0F4BD
:101020008091E800877F8093E80090934F02FCDC7A
:1010300080914F02882331F48091E30087FD02C044
:1010400081E001C084E08093530274DB8091E8006A
:1010500083FF0AC08091E800877F8093E800809139
:10106000EB0080628093EB00AC960FB6F894DEBF85
:101070000FBECDBFCF91DF911F91089508951F93AB
:1010800080915302882371F01091E9008091EC0067
:101090001092E9008091E80083FF01C07FDE1F709D
:1010A0001093E9001F910895FC0180915302843050
:1010B00099F584899589A689B7890097A105B10515
:1010C00059F186818F708093E9008091E80082FF5A
:1010D00023C04091F3002091F200942F80E030E093
:1010E000822B932B892B19F46FEF7FEF04C0809133
:1010F000F100682F70E04091F3002091F200942FEE
:1011000080E030E0822B932B892B41F48091E80022
:101110008B778093E80002C06FEF7FEFCB010895DB
:10112000FB012EE0DB011D922A95E9F723E02383E2
:1011300021E239E03187208723EA38E033872287AC
:10114000958784870895FC0184859585ADDF9C0192
:1011500097FF02C02EEF3FEFC90108950895FC01EB
:1011600080915302843051F584899589A689B78985
:101170000097A105B10511F181818F708093E9007D
:101180004091F3002091F200942F80E030E0822B18
:10119000932B892BA9F09091E8008091E8008E773D
:1011A0008093E80095FD0CC060DC982F882349F4FB
:1011B0008091E8008E778093E80003C092E001C040
:1011C00090E0892F0895FC0180915302843091F4BE
:1011D00084899589A689B7890097A105B10551F041
:1011E00081818F708093E9008091E80080FF02C0C8
:1011F000CF01B5CF08951F93FC01162F80915302A4
:101200008430E1F484899589A689B7890097A1057E
:10121000B105A1F081818F708093E9008091E80091
:1012200085FD08C08091E8008E778093E8001DDC82
:10123000882329F41093F10080E001C082E01F911F
:101240000895282FFB0184859585622FD4DF88239C
:1012500019F420E030E002C02FEF3FEFC9010895FC
:10126000CF93DF93EC014096FC018BE0DF011D92F0
:101270008A95E9F782E08C83898783E08E87CE01A7
:10128000019661E095DB882371F0CE01069661E05E
:101290008FDB882341F0CE010B9661E089DB882348
:1012A00019F081E001C080E0DF91CF910895CF93E4
:1012B000DF93EC018091E80083FFA4C0888190E077
:1012C00020915802309159022817390709F09AC025
:1012D00080915502813269F0823220F4803209F027
:1012E00091C03CC0823209F46BC0833209F08AC0DD
:1012F0007BC080915402813A09F084C08091E8005B
:10130000877F8093E8008091E80080FFFCCF8C8984
:101310009D89AE89BF898093F100292F3A2F4B2FE9
:1013200055272093F1009D01442755272093F10074
:101330008B2F9927AA27BB278093F100888D809354
:10134000F100898D8093F1008A8D8093F100809166
:10135000E8008E778093E80067DB54C080915402E8
:10136000813209F04FC08091E800877F8093E800C8
:1013700005C080915302882309F444C08091E8009D
:1013800082FFF7CF8091F1009091F1002091F10060
:101390003091F1008C8B9D8B2E8B3F8B8091F100D7
:1013A000888F8091F100898F8091F1008A8F8091E0
:1013B000E8008B778093E80037DBCE01CFDE22C0D8
:1013C000809154028132F1F48091E800877F80930C
:1013D000E8002ADB8091560290915702998B888B06
:1013E000CE010E94C7000EC080915402813251F498
:1013F0008091E800877F8093E80016DBCE01609142
:101400005602ACDEDF91CF9108959C01442737FD51
:101410004095542F60E47FE180E090E099D2C901CB
:1014200022E02093C00021E02093C1001092C2006E
:101430002093C3001092C400EFEBF0E09083809300
:10144000D10063E070E05DD270836093CF000895B7
:10145000CB0110927200D9CFEF92FF920F931F939E
:101460007A018B018091C00080648093C00080E885
:1014700095E20197F1F78091C0008F7B8093C000C7
:1014800080E699E00197F1F72150304041E050E0CB
:1014900060E070E004C0440F551F661F771F2A9557
:1014A000D2F720E639E0E0ECF2E125C0DB01CA0129
:1014B0008E219F21A023B1230097A105B10539F00A
:1014C0008091C00080648093C000CF0106C08091ED
:1014D000C00080648093C000C9010197F1F780913A
:1014E000C0008F7B8093C000C9010197F1F776950A
:1014F0006795579547954115510561057105B1F6F9
:101500008091C00080648093C00080E699E00197DC
:10151000F1F78091C0008F7B8093C0001F910F91E5
:10152000FF90EF9008951F920F920FB60F92112423
:101530002F933F938F939F93EF93FF932CB122951B
:101540002695269523702095217080916E019091AB
:101550006F01019690936F0180936E0180916D01F0
:10156000853618F086E080936C0180916C018430A0
:10157000C9F1853030F4823059F0833009F065C00C
:1015800017C0853009F454C0863009F05EC057C0DA
:10159000222309F05EC080916E0190916F01843624
:1015A000910508F447C010923A0210926D011CC0D8
:1015B000213009F04CC080916D01E82FF0E02091BE
:1015C0006E0130916F01EE0FFF1FE059FE4F318326
:1015D00020838F5F80936D0110926F0110926E01D6
:1015E00084E023C02223C9F480916D01E82FF0E04C
:1015F00020916E0130916F01EE0FFF1FE059FE4FF9
:10160000318320838F5F80936D0110926F01109260
:101610006E0183E080936C011AC080916E019091FD
:101620006F0185369105A8F085E080936C0111C0AB
:10163000222379F410926F0110926E0108C081E0AC
:1016400080933A0285E080936C01222311F4479A3B
:1016500001C04798FF91EF919F918F913F912F91FA
:101660000F900FBE0F901F90189508959B01AC012D
:1016700090E00AC0822F8370980F82E056954795BC
:10168000379527958A95D1F72115310541055105E3
:1016900089F7892F837008958BE392E0E6CFEF926C
:1016A000FF920F931F937B018C019A018CE392E0D0
:1016B000B801A701D1DE1F910F91FF90EF9008951F
:1016C000EF92FF920F931F935FEFE52E53E0F52EFD
:1016D000E822F922B701882777FD8095982FC6DF89
:1016E00090E0982F8827990F990FE80EF91E002790
:1016F000F7FC0095102FC801B7014CE050E0CFDF98
:101700001F910F91FF90EF9008958CE392E066E2B5
:1017100070E09EDE3E9A089580E58CBD1DBC209A47
:10172000219A229A14BC84E085BD16BC8FE387BD44
:1017300081E080936E00089580958EBD0DB407FE04
:10174000FDCF08950F931F93CF93DF938C019C01DE
:1017500097FF04C022273327281B390BC0E0D0E0B5
:10176000C9016AE070E0E1D0FC01E55AFE4F8081DA
:10177000FE01E45AFD4F8083C9016AE070E0D5D0D4
:101780009B01FE0131966115710559F4CF0105C029
:10179000FC01E45AFD4F1082019684309105C4F398
:1017A00004C0EF01E430F105D9F617FF03C080E46F
:1017B00080935F02DF91CF911F910F9108951F9247
:1017C0000F920FB60F9211242F933F934F935F9375
:1017D0006F937F938F939F93AF93BF93EF93FF93F9
:1017E00020913D0281E090E002C0880F991F2A9568
:1017F000E2F7A2DFE0913D02F0E0E45AFD4F808184
:101800009BDF2898289A80913D028F5F80933D024C
:1018100080913D02843011F410923D02FF91EF91CE
:10182000BF91AF919F918F917F916F915F914F91F8
:101830003F912F910F900FBE0F901F901895209100
:101840003E0230913F02C90108951F920F920FB6D8
:101850000F9211242F933F934F935F936F937F9336
:101860008F939F93AF93BF93EF93FF934A9B08C0CF
:101870004B9902C08CE401C082E58093400220C0F5
:101880004B9B0AC0809140028C34C1F480913E028F
:1018900090913F02019709C080914002823571F416
:1018A00080913E0290913F02019690933F02809377
:1018B0003E0280913E0290913F0244DF109240022E
:1018C000FF91EF91BF91AF919F918F917F916F9118
:1018D0005F914F913F912F910F900FBE0F901F90EE
:1018E0001895E8E6F0E0808181608083D898EA9AD4
:1018F000529853985A9A5B9A80913E0290913F0277
:1019000021CFAA1BBB1B51E107C0AA1FBB1FA617F3
:10191000B70710F0A61BB70B881F991F5A95A9F798
:1019200080959095BC01CD01089597FB092E07265F
:101930000AD077FD04D0E5DF06D000201AF47095B8
:1019400061957F4F0895F6F7909581959F4F089583
:10195000A1E21A2EAA1BBB1BFD010DC0AA1FBB1FB3
:10196000EE1FFF1FA217B307E407F50720F0A21B25
:10197000B30BE40BF50B661F771F881F991F1A9492
:1019800069F760957095809590959B01AC01BD01BC
:10199000CF010895EE0FFF1F0590F491E02D0994FB
:1019A00085FD4AC28062911147C281568A51E0F793
:1019B00008950F931F93CF93DF938C01EB018B81DD
:1019C00081FF1BC082FF0DC02E813F818C819D81D4
:1019D0002817390764F4E881F9810193F983E883D2
:1019E00006C0E885F985802F0995892B31F48E8111
:1019F0009F8101969F838E8302C00FEF1FEFC80166
:101A0000DF91CF911F910F910895EF92FF920F9365
:101A10001F93CF93DF937C018B01DB0113968C9195
:101A200081FD03C0CFEFDFEF13C0C0E0D0E00BC0FB
:101A3000D8011896ED91FC911997B8010995892B59
:101A400011F0CFEFDFEFF70181917F01882381F75C
:101A5000CE01CDB7DEB7E6E08EC2AEE0B0E0E2E3A5
:101A6000FDE06FC20D891E8986E08C831A8309838D
:101A70008FEF9FE79E838D839E01275E3F4FCE01B0
:101A800001966F89788DA90109D02F813885020FC1
:101A9000131FF80110822E96E4E06FC2ABE0B0E0B5
:101AA000E3E5FDE040C23C012B015A01FC01178235
:101AB0001682838181FD03C06FEF7FEFB9C19AE089
:101AC000892E1E010894211C311CF3012381F2018F
:101AD00023FD859123FF81912F01882309F4A5C15E
:101AE000853239F423FD859123FF81912F018532C1
:101AF00021F490E0B3015DDFE8CF982FFF24EE24BE
:101B00009924FFE1FF15D0F09B3269F09C3228F454
:101B1000903259F0933291F40EC09D3249F09033D7
:101B200069F441E024C052E0F52A84E0F82A28C094
:101B300098E0F92A25C0E0E1FE2A22C0F7FC29C07E
:101B4000892F80538A3070F4F6FE05C0989C902C43
:101B50001124980E15C0E89CE02C1124E80EF0E248
:101B6000FF2A0EC09E3229F4F6FC5FC140E4F42A3D
:101B700007C09C3619F450E8F52A02C0983649F49B
:101B8000F20123FD959123FF91912F01992309F0F3
:101B9000B8CF892F8554833018F08052833038F4C1
:101BA00044E050E0A40EB51E5FE359830FC09336A6
:101BB00031F0933779F0933509F052C01FC0F50129
:101BC0008081898342E050E0A40EB51E610101E0EE
:101BD00010E011C0F501C080D180F6FC03C06FEFAA
:101BE0007FEF02C0692D70E042E050E0A40EB51E08
:101BF000C60130D18C015FE7F52213C0F501C0802A
:101C0000D180F6FC03C06FEF7FEF02C0692D70E05A
:101C100042E050E0A40EB51EC60111D18C0150E87F
:101C2000F52AF3FE06C018C080E290E0B301C1DEE1
:101C3000EA948E2D90E008171907B0F30DC0F60155
:101C4000F7FC8591F7FE81916F0190E0B301B1DE61
:101C5000E110EA94015010400115110581F7E2C02E
:101C6000943611F0993661F5F7FE08C0F501208130
:101C700031814281538184E090E00AC0F501808186
:101C800091819C01442737FD4095542F82E090E0DC
:101C9000A80EB91E9FE6F92257FF09C0509540953E
:101CA000309521953F4F4F4F5F4FE0E8FE2ACA0124
:101CB000B901A1012AE030E0D8D0D82ED2183FC017
:101CC000953729F41F2D1F7E2AE030E01DC01F2DFF
:101CD000197F9F3661F0903720F4983509F0A5C040
:101CE0000FC0903739F0983709F09FC004C028E042
:101CF00030E00AC0106114FD146020E130E004C03F
:101D000014FD166020E132E017FF08C0F501608184
:101D100071818281938144E050E008C0F5018081A7
:101D20009181BC0180E090E042E050E0A40EB51E3D
:101D3000A1019BD0D82ED2188FE7F82EF122F6FE03
:101D40000BC05EEFF522D91438F4F4FE07C0F2FCA4
:101D500005C08FEEF82202C01D2D01C0192DF4FE22
:101D60000DC0FE01ED0DF11D8081803319F499EE57
:101D7000F92208C01F5FF2FE05C003C08F2D8678D0
:101D800009F01F5F0F2DF3FC13C0F0FE0EC01E15EF
:101D900010F09D2C0AC09D2C9E0C911A1E2D05C082
:101DA00080E290E0B30105DE1F5F1E15C8F304C09A
:101DB0001E1510F4E11A01C0EE2404FF0EC080E3EA
:101DC00090E0B301F6DD02FF1BC001FD03C088E710
:101DD00090E00EC088E590E00BC0802F867881F0FF
:101DE00001FF02C08BE201C080E2F7FC8DE290E0CF
:101DF000B301DFDD05C080E390E0B301DADD9A9442
:101E0000D914C8F3DA94F101ED0DF11D808190E051
:101E1000B301CFDDDD20B1F705C080E290E0B30172
:101E2000C8DDEA94EE20C9F750CEF30166817781D0
:101E3000CB012B96E2E193C0992788270895FC01F6
:101E40000590615070400110D8F7809590958E0FE5
:101E50009F1F0895FC016150704001900110D8F758
:101E6000809590958E0F9F1F0895FA01AA2728301C
:101E700051F1203181F1E8946F936E7F6E5F7F4F57
:101E80008F4F9F4FAF4FB1E03ED0B4E03CD0670FD3
:101E9000781F891F9A1FA11D680F791F8A1F911D26
:101EA000A11D6A0F711D811D911DA11D20D009F476
:101EB00068943F912AE0269F11243019305D3193B8
:101EC000DEF6CF010895462F4770405D4193B3E0A1
:101ED0000FD0C9F7F6CF462F4F70405D4A3318F048
:101EE000495D31FD4052419302D0A9F7EACFB4E0F9
:101EF000A6959795879577956795BA95C9F70097B1
:101F00006105710508959B01AC010A2E0694579551
:101F1000479537952795BA95C9F7620F731F841FA8
:101F2000951FA01D08952F923F924F925F926F923E
:101F30007F928F929F92AF92BF92CF92DF92EF9259
:101F4000FF920F931F93CF93DF93CDB7DEB7CA1BDA
:101F5000DB0B0FB6F894DEBF0FBECDBF09942A8805
:101F6000398848885F846E847D848C849B84AA84AD
:101F7000B984C884DF80EE80FD800C811B81AA813A
:101F8000B981CE0FD11D0FB6F894DEBF0FBECDBF05
:081F9000ED010895F894FFCF64
:101F980025642025642025642025642025642025C7
:101FA8006420256420256420256420256420256478
:101FB8002025642025642025642025642025640DBF
:101FC8000A000083100000010410000001820800CC
:101FD80000010000000000000000000000000100F7
:101FE80000040506072021222324253F065B4F66AF
:061FF8006D7D277F6F00E4
:00000001FF
