:100000009CC00000C1C00000BFC000000C94AF093C
:10001000BBC00000B9C00000B7C00000B5C0000000
:10002000B3C00000B1C000004DC3000016C4000002
:10003000ABC00000A9C00000A7C00000A5C0000020
:10004000A3C00000A1C000009FC000009DC0000030
:100050009BC0000099C0000097C000000C945A0992
:1000600093C0000091C000008FC000008DC0000050
:100070008BC0000089C0000087C0000085C0000060
:1000800083C0000081C000007FC000007DC0000070
:100090007BC0000079C0000077C0000075C0000080
:1000A00073C00000DCC700006FC000001C034C00E0
:1000B000550046004100200043004400430020005A
:1000C000440065006D006F000000180344006500E7
:1000D00061006E002000430061006D006500720049
:1000E000610000000403090409023E00020100C08F
:1000F000320904000001020201000524001001047D
:100100002402060524060001070582030800FF09F2
:10011000040100020A0000000705040210000507A0
:100120000583021000051201100102000008EB0314
:10013000442001000102DC01100911241FBECFEF91
:10014000DAE0DEBFCDBF11E0A0E0B1E0E8E0F5E12C
:1001500002C005900D92A632B107D9F722E0A6E2BF
:10016000B1E001C01D92AC31B207E1F711E0CAE382
:10017000D1E004C02297FE010E94460AC833D1078D
:10018000C9F74ED00C94820A3BCF0895089580E0C1
:1001900091E02CC580E091E01FC60895CF93DF93D6
:1001A0000E94A909EC01CC0FDD1FC80FD91F809157
:1001B0002601909127018C179D0779F0C1308FEFB0
:1001C000D8075CF0CF3FD10509F03CF4CE010E9486
:1001D000F608D0932701C0932601DF91CF910895AF
:1001E000CF9384B7877F84BF88E10FB6F89480935C
:1001F0006000109260000FBEC0E880E00FB6F89477
:10020000C0936100809361000FBE3FD2C5BFC5BFE0
:10021000C4D70E9413090E9499093F9ACF9108956B
:10022000DFDF6DEF71E080E091E0C2D5789480E08F
:1002300091E07CD5EC01DD27CE010E944C0A892B90
:1002400059F06DEF71E0CE010E94530A6DEF71E03D
:100250008AE090E00E94530AA1DF80E091E050D54F
:10026000A9D48FE697E10197F1F700C00000DFCF36
:10027000292F33272230310539F02330310549F059
:100280002130310521F128C0EEE3F0E088EE90E066
:1002900027C099278130910561F08230910581F066
:1002A000892BD1F4E4EEF0E0E491F0E084EE90E00C
:1002B00017C0EAECF0E0E491F0E08AEC90E010C0C6
:1002C000ECEAF0E0E491F0E08CEA90E009C0E2E1D1
:1002D000F0E086E291E004C0E0E0F0E080E090E051
:1002E000DA018D939C93CF010895409116025091AD
:1002F00017024617570748F06115710539F4409108
:10030000E8004E774093E80001C0BA01FC0140E0EC
:1003100033C080910F02882309F444C0853009F46A
:1003200043C08091E80083FD41C08091E80082FDD8
:1003300033C08091E80080FF1FC09091F30080914E
:10034000F200392F20E0A901482BCA0106C04191D3
:100350004093F1006150710901966115710519F022
:1003600088309105A0F341E0089709F040E08091C2
:10037000E8008E778093E8006115710551F6411110
:10038000C8CF0AC080910F02882361F0853061F0E8
:100390008091E80083FD0AC08091E80082FFF2CFDF
:1003A00080E0089582E0089583E0089581E0089553
:1003B00040911602509117024617570748F06115F1
:1003C000710539F44091E8004E774093E80001C090
:1003D000BA01FC0140E034C080910F02882309F487
:1003E00045C0853009F444C08091E80083FD42C0D7
:1003F0008091E80082FD34C08091E80080FF20C039
:100400009091F3008091F200392F20E0A901482B50
:10041000CA0107C044914093F100319661507109BF
:1004200001966115710519F08830910598F341E046
:10043000089709F040E08091E8008E778093E8000B
:100440006115710549F64111C7CF0AC080910F02AD
:10045000882361F0853061F08091E80083FD0AC057
:100460008091E80082FFF2CF80E0089582E0089555
:1004700083E0089581E00895982F2CC09093E900BF
:10048000981739F07091EC002091ED005091F00038
:1004900003C0242F762F50E021FD02C09F5F1AC0B9
:1004A0003091EB003E7F3093EB003091ED003D7FCB
:1004B0003093ED003091EB0031603093EB0070939E
:1004C000EC002093ED005093F0002091EE0027FD0A
:1004D000E5CF07C0973090F28F708093E90081E0FC
:1004E000089580E008950F931F93CF93DF93062F15
:1004F000EC0110E02FC09881911103C01F5F259679
:1005000029C02C81E981FA817B81892F8F70873006
:1005100010F080E022C0223010F056E001C052E01E
:1005200028E030E040E003C04F5F220F331F2E175A
:100530003F07D0F34295407F452B692F661F662702
:10054000661F90E4799F90011124622B95DF811141
:10055000D5CFDFCF1013CFCF81E0DF91CF911F91A7
:100560000F9108958091100287FD05C08091E800E9
:1005700080FF0EC012C08091E80082FD05C080910E
:100580000F028111F8CF08958091E8008B7708C0A1
:1005900080910F028111EACF08958091E8008E7753
:1005A0008093E80008958091E4009091E50045E68D
:1005B0002091EC0020FD1FC023C020910F022223B8
:1005C00091F0253091F02091EB0025FD10C0209195
:1005D000E4003091E5002817390751F34150C90173
:1005E00039F784E0089582E0089583E0089581E07A
:1005F000089580E008952091E80020FFDECFF9CF34
:100600002091E80022FFD9CFF4CF0F931F93CF930F
:10061000DF934BD052D0C8EDD0E088818F778883AC
:1006200088818068888388818F7D888319BC109237
:100630000F0210920B0210920D0210920C0200EEAB
:1006400010E0F80180818B7F8083888181608883BE
:1006500042E060E080E010DFE1EEF0E080818E7F3C
:100660008083E2EEF0E08081816080838081886019
:100670008083F80180818E7F808388818061888378
:10068000DF91CF911F910F910895E8EDF0E0808107
:100690008F7E8083E7EDF0E080818160808384E05D
:1006A00082BF81E080930E02B0CFE8EDF0E0808160
:1006B0008E7F80831092E20008951092DA001092EB
:1006C000E10008951F920F920FB60F9211242F93FD
:1006D0003F934F935F936F937F938F939F93AF93CA
:1006E000BF93EF93FF938091E10082FF0AC0809156
:1006F000E20082FF06C08091E1008B7F8093E100E1
:1007000058D28091DA0080FF1DC08091D80080FF10
:1007100019C08091DA008E7F8093DA008091D90031
:1007200080FF0CC080E189BD82E189BD09B400FE73
:10073000FDCF81E080930F0228DD04C019BC109228
:100740000F0224DD8091E10080FF18C08091E2005B
:1007500080FF14C08091E2008E7F8093E200809140
:10076000E20080618093E2008091D80080628093F3
:10077000D80019BC85E080930F021BD28091E10064
:1007800084FF2FC08091E20084FF2BC080E189BDEF
:1007900082E189BD09B400FEFDCF8091D8008F7D34
:1007A0008093D8008091E1008F7E8093E10080915A
:1007B000E2008F7E8093E2008091E200816080936E
:1007C000E20080910B02882311F084E007C0809141
:1007D000E30087FF02C083E001C081E080930F0245
:1007E000E8D18091E10083FF27C08091E20083FF80
:1007F00023C08091E100877F8093E10082E08093B5
:100800000F0210920B028091E1008E7F8093E10035
:100810008091E2008E7F8093E2008091E20080610F
:100820008093E20042E060E080E026DE8091F0000C
:1008300088608093F000BDD1FF91EF91BF91AF919F
:100840009F918F917F916F915F914F913F912F91E8
:100850000F900FBE0F901F9018951F920F920FB61A
:100860000F9211242F933F934F935F936F937F9336
:100870008F939F93AF93BF93CF93EF93FF93809109
:10088000E9008F709091EC0090FF02C090E801C0E9
:1008900090E0C92FC82B1092E9008091F000877F6B
:1008A0008093F00078941CD01092E9008091F000C1
:1008B00088608093F000CF70C093E900FF91EF91C2
:1008C000CF91BF91AF919F918F917F916F915F91E8
:1008D0004F913F912F910F900FBE0F901F90189541
:1008E0001F93CF93DF93CDB7DEB7AC970FB6F894D5
:1008F000DEBF0FBECDBFE0E1F2E08091F100819359
:1009000022E0E831F207C9F745DC8091E80083FF77
:1009100038C18091100290911102953009F489C07C
:1009200038F49130C9F170F0933009F02AC134C025
:10093000983009F4F8C0993009F407C1963009F0ED
:1009400020C19DC0803821F0823809F01AC108C04A
:1009500080910C0290910D029923A1F0826012C047
:1009600080911402909115028F709927873008F0BA
:1009700008C18093E9008091EB0085FB882780F90E
:100980001092E9009091E800977F9093E80080939F
:10099000F1001092F100D2C0882319F0823009F0E2
:1009A000F0C08F7121F0823009F0EBC00BC0809154
:1009B0001202813009F0E5C0933009F080E08093A5
:1009C0000D0231C08091120281112DC0809114025C
:1009D000909115028F709927282F2150263008F00A
:1009E000D0C08093E9002091EB0020FF1CC0209133
:1009F0001102233021F48091EB00806212C09091AB
:100A0000EB0090619093EB0021E030E001C0220FF9
:100A10008A95EAF72093EA001092EA008091EB00B1
:100A200088608093EB001092E9008091E800877F56
:100A300088C08111A6C080911202909113028F7715
:100A40009927182F9091E3009078982B9093E300CA
:100A50008091E800877F8093E80084DD8091E80042
:100A600080FFFCCF8091E30080688093E300112336
:100A700011F083E001C082E080930F0282C08058B1
:100A8000823008F07EC080911202909113028C3D5A
:100A900023E0920771F583E08A838AE289834FB766
:100AA000F894DE01139620E03EE051E2E32FF0E0FF
:100AB00050935700E49120FF03C0E295EF703F5F31
:100AC000EF708E2F90E0EA3010F0C79601C0C0960C
:100AD0008D939D932F5F243149F74FBF8091E8009C
:100AE000877F8093E8006AE270E0CE010196FDDB2B
:100AF00014C06091140270911502AE01455D5F4F04
:100B0000B7DB009709F43DC02091E800277F2093D0
:100B1000E800BC018BA59CA54BDC8091E8008B779D
:100B20008093E8002EC0803861F58091E800877FCF
:100B30008093E80080910B028093F1008091E8009F
:100B40008E778093E8000EDD1CC081111AC0909151
:100B500012029230B0F48091E800877F8093E80021
:100B600090930B02FFDC80910B02811104C08091F5
:100B7000E30087FF02C084E001C081E080930F02A0
:100B800006DB8091E80083FF0AC08091E800877F40
:100B90008093E8008091EB0080628093EB00AC963C
:100BA0000FB6F894DEBF0FBECDBFDF91CF911F917E
:100BB00008950895CF9380910F028823A9F0809122
:100BC000E9008F709091EC0090FF02C090E801C0A6
:100BD00090E0C92FC82B1092E9008091E80083FDB6
:100BE0007FDECF70C093E900CF910895CF93DF935C
:100BF000EC014096FC018BE0DF011D928A95E9F73C
:100C000082E08C83898783E08E8761E0CE01019644
:100C10006ADC882361F061E0CE01069664DC8823FB
:100C200031F061E0CE010B96DF91CF915CCC80E09A
:100C3000DF91CF910895CF93C62F20910F022430DA
:100C4000F1F4FC014489558966897789452B462B47
:100C5000472BA9F081818F708093E9008091E80093
:100C600085FF04C0C093F10080E00AC08091E800D5
:100C70008E778093E80097DC8823A1F301C082E09F
:100C8000CF910895FB01682F84859585D4DF882353
:100C900019F02FEF3FEF02C020E030E0C9010895C6
:100CA00020910F02243051F5FC0144895589668951
:100CB0007789452B462B472B09F181818F708093D3
:100CC000E9003091F3002091F200932F80E0822B15
:100CD000892B11F480E008959091E8008091E8005C
:100CE0008E778093E80095FDF5CF5DDC811107C01C
:100CF0009091E8009E779093E800089582E008952F
:100D000020910F02243089F4FC01448955896689B9
:100D10007789452B462B472B41F021812F7020935B
:100D2000E9002091E80020FDBBCF089520910F023B
:100D3000243019F02FEF3FEF2EC0FC014489558974
:100D400066897789452B462B472BA1F386818F70C7
:100D50008093E9008091E80082FFECCF3091F300AE
:100D60002091F200932F80E0822B892B21F020919B
:100D7000F10030E002C02FEF3FEF5091F3004091BF
:100D8000F200952F80E0842B892B29F48091E800D4
:100D90008B778093E800C9010895FC0184859585CF
:100DA000C5DF9C0197FF02C02EEF3FEFC9010895F8
:100DB000FB012EE0DB011D922A95E9F723E0238356
:100DC00022E436E0318720872DEC36E03387228716
:100DD0009587848708950895CF93DF93EC018091E0
:100DE000E80083FFA7C0888190E020911402309131
:100DF00015022817390709F09DC080911102813230
:100E000061F020F4803209F095C03DC0823209F4CF
:100E10006DC0833209F08EC07DC080911002813A8E
:100E200009F088C08091E800877F8093E800809176
:100E3000E80080FFFCCF4C895D896E897F894093F3
:100E4000F100BB27A72F962F852F8093F100CB01B0
:100E5000AA27BB278093F100472F552766277727BE
:100E60004093F100888D8093F100898D8093F1008B
:100E70008A8D8093F1008091E8008E778093E8005E
:100E8000DF91CF916FCB80911002813209F052C077
:100E90008091E800877F8093E80005C080910F0271
:100EA000882309F447C08091E80082FFF7CF309192
:100EB000F1002091F1009091F1008091F1003C8BC4
:100EC0002D8B9E8B8F8B8091F100888F8091F1000C
:100ED000898F8091F1008A8F8091E8008B778093D1
:100EE000E80040DBCE01DF91CF9175CF80911002F9
:100EF000813201F58091E800877F8093E80032DB42
:100F00008091120290911302998B888BCE01DF9110
:100F1000CF9143C980911002813261F48091E80041
:100F2000877F8093E8001EDB60911202CE01DF9183
:100F3000CF9151CFDF91CF9108959C01442737FD88
:100F40004095542F60E47FE180E090E07BD2C901BE
:100F500042E04093C00041E04093C1001092C200C3
:100F60004093C3001092C400EFEBF0E03083209375
:100F7000D10063E070E03FD270836093CF000895AA
:100F8000CB0110927200D9CF0F931F938091C000B4
:100F900080648093C0008FE795E20197F1F700C06D
:100FA00000008091C0008F7B8093C000EFE5F9E0E6
:100FB0003197F1F700C000002150310981E090E045
:100FC000A0E0B0E004C0880F991FAA1FBB1F2A959C
:100FD000D2F72EC08C019D0104231523262337232D
:100FE000012B022B032B51F02091C0002064209391
:100FF000C000EFEBF2E13197F1F709C02091C0009A
:1010000020642093C000EFE5F9E03197F1F700C0CC
:1010100000002091C0002F7B2093C000EFE5F9E095
:101020003197F1F700C00000B695A7959795879581
:101030000097A105B10571F68091C000806480938E
:10104000C0008FE599E00197F1F700C000008091A2
:10105000C0008F7B8093C0001F910F9108951F9255
:101060000F920FB60F9211242F938F939F93EF93AC
:10107000FF932CB126FB222720F981E028278091BD
:101080002A0190912B01019690932B0180932A01C4
:1010900080912901853618F086E08093280180919F
:1010A00028018430B9F130F4823059F0833009F0EE
:1010B00064C016C0853009F453C0863009F05DC0A5
:1010C00056C021115EC080912A0190912B01843677
:1010D000910508F447C01092F601109229011CC036
:1010E000213009F04CC020912901E22FF0E08091DD
:1010F0002A0190912B01EE0FFF1FE45DFE4F9183BB
:1011000080832F5F2093290110922B0110922A01D6
:1011100084E023C0211119C020912901E22FF0E0C1
:1011200080912A0190912B01EE0FFF1FE45DFE4F8D
:10113000918380832F5F2093290110922B011092BD
:101140002A0183E0809328011AC080912A0190919E
:101150002B0185369105A8F085E08093280111C008
:1011600021110FC010922B0110922A0108C081E0BA
:101170008093F60185E080932801211102C0479AEF
:1011800001C04798FF91EF919F918F912F910F9000
:101190000FBE0F901F901895089566E270E087EFDC
:1011A00091E0EEDE3E9A08959A01AB01BC0187EF13
:1011B00091E0EACE0F931F9340E00EC08B019C019B
:1011C0000370112722273327400F22E09695879539
:1011D000779567952A95D1F7611571058105910578
:1011E00069F7842F83701F910F910895CF93DF9338
:1011F000EC01D370BE01882777FD8095982FDADF48
:10120000382F330F330F20E0B9016C0F7D1F882773
:1012100077FD8095982F4CE050E0DF91CF91C4CFBF
:1012200088EF91E0B9CF80E58CBD1DBC209A219A52
:10123000229A14BC84E085BD16BC8FE387BD81E093
:1012400080936E00089580958EBD0DB407FEFDCF8E
:101250000895CF93DF939C0137FF04C08827992717
:10126000821B930BE0E0F0E0CAE0D0E0BE01D7D0F3
:10127000DC01A55EBE4F8C91DF01A85EBD4F8C9353
:10128000CB013196009761F405C0DF01A85EBD4F28
:101290001C923196E430F105C1F737FF08C004C055
:1012A000E430F10519F7F9CF80E480931B02DF9158
:1012B000CF9108951F920F920FB60F9211242F9382
:1012C0003F934F935F936F937F938F939F93AF93CE
:1012D000BF93EF93FF932091F90181E090E001C06B
:1012E000880F2A95EAF7AFDFE091F901F0E0E85EB8
:1012F000FD4F8081A8DF2898289A8091F9018F5F9F
:101300008093F9018091F901843011F41092F90170
:10131000FF91EF91BF91AF919F918F917F916F91CD
:101320005F914F913F912F910F900FBE0F901F90A3
:101330001895E8E6F0E0808181608083D898EA9A89
:10134000529853985A9A5B9A8091FA019091FB01B6
:1013500080CF2091FA013091FB01C90108951F92BD
:101360000F920FB60F9211242F933F934F935F93D9
:101370006F937F938F939F93AF93BF93EF93FF935D
:101380004A9B08C04B9B02C082E501C08CE480935D
:10139000FC0120C04B9B0AC08091FC018C34C1F43D
:1013A0008091FA019091FB01019709C08091FC01A5
:1013B000823571F48091FA019091FB01019690932E
:1013C000FB018093FA018091FA019091FB0141DFCA
:1013D0001092FC01FF91EF91BF91AF919F918F917E
:1013E0007F916F915F914F913F912F910F900FBE21
:1013F0000F901F901895AA1BBB1B51E107C0AA1F95
:10140000BB1FA617B70710F0A61BB70B881F991FA5
:101410005A95A9F780959095BC01CD01089597FB49
:10142000072E16F4009406D077FD08D0E4DF07FC01
:1014300005D03EF4909581959F4F089570956195E4
:101440007F4F0895A1E21A2EAA1BBB1BFD010DC000
:10145000AA1FBB1FEE1FFF1FA217B307E407F50764
:1014600020F0A21BB30BE40BF50B661F771F881F40
:10147000991F1A9469F760957095809590959B01D6
:10148000AC01BD01CF010895EE0FFF1F0590F4914F
:10149000E02D099485FD33C08062911130C08156E2
:1014A0008A51E0F708950F931F93CF93DF938C0138
:1014B000EB018B8181FD03C00FEF1FEF1AC082FF8C
:1014C0000DC02E813F818C819D812817390764F4DE
:1014D000E881F9810193F983E88306C0E885F985FD
:1014E000802F0995892B41F78E819F8101969F83DB
:1014F0008E83C801DF91CF911F910F910895992795
:0815000088270895F894FFCF3D
:10150800008310000001041000000182080000019F
:1015180000000000000000000000003F065B4F666E
:061528006D7D277F6F00BE
:00000001FF
