:100000009CC00000C1C00000BFC000000C946D0A7D
:10001000BBC00000B9C00000B7C00000B5C0000000
:10002000B3C00000B1C000005CC3000025C40000E4
:10003000ABC00000A9C00000A7C00000A5C0000020
:10004000A3C00000A1C000009FC000009DC0000030
:100050009BC0000099C0000097C000000C942E0ABD
:1000600093C0000091C000008FC000008DC0000050
:100070008BC0000089C0000087C0000085C0000060
:1000800083C0000081C000007FC000007DC0000070
:100090007BC0000079C0000077C0000075C0000080
:1000A00073C00000D5C700006FC000001C034C00E7
:1000B000550046004100200043004400430020005A
:1000C000440065006D006F000000180344006500E7
:1000D00061006E002000430061006D006500720049
:1000E000610000000403090409023E00020100C08F
:1000F000320904000001020201000524001001047D
:100100002402060524060001070582030800FF09F2
:10011000040100020A0000000705040210000507A0
:100120000583021000051201100102000008EB0314
:10013000442001000102DC01F40911241FBECFEFAD
:10014000DAE0DEBFCDBF11E0A0E0B1E0EAE7FAE11E
:1001500002C005900D92A632B107D9F722E0A6E2BF
:10016000B1E001C01D92AA31B207E1F711E0CAE384
:10017000D1E004C02297FE010E94FF0CC833D107D2
:10018000C9F754D00C943B0D3BCF0895089580E0FF
:1001900091E03BC580E091E02EC608958A3621E0CB
:1001A000920791F02CF4893621E0920799F409C066
:1001B0008B3641E0940759F0811524E0920751F401
:1001C0000895299A8D9A089529988D98089580E028
:1001D00090E006C09C0121503F4F2F3F314010F46A
:1001E0000C94B90A0895CF9384B7877F84BF88E1C0
:1001F0000FB6F89480936000109260000FBEC0E8C4
:1002000080E00FB6F894C0936100809361000FBE48
:100210004BD2C5BFC5BF0E948E090E94D90A3F9A22
:10022000219A849A859A869ACF910895DCDF6BEFA4
:1002300071E080E091E0CBD5789480E091E085D5C5
:10024000EC01DD27CE010E94050D892B59F06BEFE3
:1002500071E0CE010E940C0D6BEF71E08AE090E03E
:100260000E940C0D0E94C809811524E0920709F034
:1002700095DF80E091E053D5ACD48FEF91EE24E090
:10028000815090402040E1F700C00000D6CF292FD8
:1002900033272230310539F02330310549F0213040
:1002A000310521F128C0EEE3F0E088EE90E027C0B0
:1002B00099278130910561F08230910581F0892B79
:1002C000D1F4E4EEF0E0E491F0E084EE90E017C0C9
:1002D000EAECF0E0E491F0E08AEC90E010C0ECEAA7
:1002E000F0E0E491F0E08CEA90E009C0E2E1F0E0B7
:1002F00086E291E004C0E0E0F0E080E090E0DA0126
:100300008D939C93CF010895409114025091150252
:100310004617570748F06115710539F44091E80018
:100320004E774093E80001C0BA01FC0140E033C0C1
:1003300080910D02882309F444C0853009F443C03C
:100340008091E80083FD41C08091E80082FD33C0C8
:100350008091E80080FF1FC09091F3008091F2002F
:10036000392F20E0A901482BCA0106C041914093D2
:10037000F1006150710901966115710519F088301D
:100380009105A0F341E0089709F040E08091E80072
:100390008E778093E8006115710551F64111C8CF41
:1003A0000AC080910D02882361F0853061F0809150
:1003B000E80083FD0AC08091E80082FFF2CF80E070
:1003C000089582E0089583E0089581E008954091C2
:1003D0001402509115024617570748F06115710530
:1003E00039F44091E8004E774093E80001C0BA012B
:1003F000FC0140E034C080910D02882309F445C01F
:10040000853009F444C08091E80083FD42C08091AA
:10041000E80082FD34C08091E80080FF20C0909108
:10042000F3008091F200392F20E0A901482BCA0186
:1004300007C044914093F1003196615071090196D3
:100440006115710519F08830910598F341E008971E
:1004500009F040E08091E8008E778093E800611514
:10046000710549F64111C7CF0AC080910D0288235A
:1004700061F0853061F08091E80083FD0AC08091D1
:10048000E80082FFF2CF80E0089582E0089583E0E3
:10049000089581E00895982F2CC09093E900981753
:1004A00039F07091EC002091ED005091F00003C004
:1004B000242F762F50E021FD02C09F5F1AC030919B
:1004C000EB003E7F3093EB003091ED003D7F3093A9
:1004D000ED003091EB0031603093EB007093EC0055
:1004E0002093ED005093F0002091EE0027FDE5CF22
:1004F00007C0973090F28F708093E90081E00895F3
:1005000080E008950F931F93CF93DF93062FEC01A4
:1005100010E02FC09881911103C01F5F259629C05C
:100520002C81E981FA817B81892F8F70873010F0CF
:1005300080E022C0223010F056E001C052E028E0F6
:1005400030E040E003C04F5F220F331F2E173F07FC
:10055000D0F34295407F452B692F661F6627661FA3
:1005600090E4799F90011124622B95DF8111D5CF02
:10057000DFCF1013CFCF81E0DF91CF911F910F918B
:10058000089580910E0287FD05C08091E80080FFEC
:100590000EC012C08091E80082FD05C080910D025E
:1005A0008111F8CF08958091E8008B7708C0809181
:1005B0000D028111EACF08958091E8008E77809333
:1005C000E80008958091E4009091E50045E62091CF
:1005D000EC0020FD1FC023C020910D02222391F0CA
:1005E000253091F02091EB0025FD10C02091E40012
:1005F0003091E5002817390751F34150C90139F707
:1006000084E0089582E0089583E0089581E00895EC
:1006100080E008952091E80020FFDECFF9CF2091FF
:10062000E80022FFD9CFF4CF0F931F93CF93DF932E
:100630004BD052D0C8EDD0E088818F7788838881F5
:100640008068888388818F7D888319BC10920D0211
:100650001092090210920B0210920A0200EE10E0B2
:10066000F80180818B7F808388818160888342E06C
:1006700060E080E010DFE1EEF0E080818E7F80833B
:10068000E2EEF0E0808181608083808188608083F9
:10069000F80180818E7F8083888180618883DF91EB
:1006A000CF911F910F910895E8EDF0E080818F7E4A
:1006B0008083E7EDF0E080818160808384E082BF09
:1006C00081E080930C02B0CFE8EDF0E080818E7F76
:1006D00080831092E20008951092DA001092E100F7
:1006E00008951F920F920FB60F9211242F933F93EC
:1006F0004F935F936F937F938F939F93AF93BF932A
:10070000EF93FF938091E10082FF0AC08091E200A5
:1007100082FF06C08091E1008B7F8093E10058D278
:100720008091DA0080FF1DC08091D80080FF19C041
:100730008091DA008E7F8093DA008091D90080FF6B
:100740000CC080E189BD82E189BD09B400FEFDCF06
:1007500081E080930D0219DD04C019BC10920D02D6
:1007600015DD8091E10080FF18C08091E20080FFDC
:1007700014C08091E2008E7F8093E2008091E200BD
:1007800080618093E2008091D80080628093D800DD
:1007900019BC85E080930D021BD28091E10084FF9B
:1007A0002FC08091E20084FF2BC080E189BD82E1EF
:1007B00089BD09B400FEFDCF8091D8008F7D809364
:1007C000D8008091E1008F7E8093E1008091E2006B
:1007D0008F7E8093E2008091E20081608093E2004E
:1007E00080910902882311F084E007C08091E30022
:1007F00087FF02C083E001C081E080930D02E8D151
:100800008091E10083FF27C08091E20083FF23C035
:100810008091E100877F8093E10082E080930D0268
:10082000109209028091E1008E7F8093E100809117
:10083000E2008E7F8093E2008091E20080618093ED
:10084000E20042E060E080E026DE8091F000886017
:100850008093F000BDD1FF91EF91BF91AF919F9137
:100860008F917F916F915F914F913F912F910F9059
:100870000FBE0F901F9018951F920F920FB60F92F8
:1008800011242F933F934F935F936F937F938F9395
:100890009F93AF93BF93CF93EF93FF938091E90022
:1008A0008F709091EC0090FF02C090E801C090E042
:1008B000C92FC82B1092E9008091F000877F8093A8
:1008C000F00078941CD01092E9008091F0008860CC
:1008D0008093F000CF70C093E900FF91EF91CF912A
:1008E000BF91AF919F918F917F916F915F914F9148
:1008F0003F912F910F900FBE0F901F9018951F934F
:10090000CF93DF93CDB7DEB7AC970FB6F894DEBFC9
:100910000FBECDBFEEE0F2E08091F100819322E0C6
:10092000E631F207C9F736DC8091E80083FF38C171
:1009300080910E0290910F02953009F489C038F42D
:100940009130C9F170F0933009F02AC134C0983069
:1009500009F4F8C0993009F407C1963009F020C1B4
:100960009DC0803821F0823809F01AC108C08091FA
:100970000A0290910B029923A1F0826012C080912B
:100980001202909113028F709927873008F008C1E6
:100990008093E9008091EB0085FB882780F9109215
:1009A000E9009091E800977F9093E8008093F10030
:1009B0001092F100D2C0882319F0823009F0F0C003
:1009C0008F7121F0823009F0EBC00BC080911002D2
:1009D000813009F0E5C0933009F080E080930B028C
:1009E00031C08091100281112DC08091120290912E
:1009F00013028F709927282F2150263008F0D0C07D
:100A00008093E9002091EB0020FF1CC020910F0291
:100A1000233021F48091EB00806212C09091EB00B2
:100A200090619093EB0021E030E001C0220F8A95A5
:100A3000EAF72093EA001092EA008091EB008860C8
:100A40008093EB001092E9008091E800877F88C0D6
:100A50008111A6C080911002909111028F77992781
:100A6000182F9091E3009078982B9093E300809159
:100A7000E800877F8093E80084DD8091E80080FFB4
:100A8000FCCF8091E30080688093E300112311F094
:100A900083E001C082E080930D0282C080588230E2
:100AA00008F07EC080911002909111028C3D23E0ED
:100AB000920771F583E08A838AE289834FB7F894BD
:100AC000DE01139620E03EE051E2E32FF0E0509388
:100AD0005700E49120FF03C0E295EF703F5FEF7095
:100AE0008E2F90E0EA3010F0C79601C0C0968D932B
:100AF0009D932F5F243149F74FBF8091E800877F96
:100B00008093E8006AE270E0CE010196FDDB14C03C
:100B10006091120270911302AE01455D5F4FB7DB29
:100B2000009709F43DC02091E800277F2093E8005A
:100B3000BC018BA59CA54BDC8091E8008B77809352
:100B4000E8002EC0803861F58091E800877F8093AF
:100B5000E800809109028093F1008091E8008E778F
:100B60008093E8000EDD1CC081111AC09091100224
:100B70009230B0F48091E800877F8093E8009093F2
:100B80000902FFDC80910902811104C08091E30019
:100B900087FF02C084E001C081E080930D02F7DA94
:100BA0008091E80083FF0AC08091E800877F8093EE
:100BB000E8008091EB0080628093EB00AC960FB66A
:100BC000F894DEBF0FBECDBFDF91CF911F91089586
:100BD0000895CF9380910D028823A9F08091E900B8
:100BE0008F709091EC0090FF02C090E801C090E0FF
:100BF000C92FC82B1092E9008091E80083FD7FDEA9
:100C0000CF70C093E900CF910895CF93DF93EC01AB
:100C10004096FC018BE0DF011D928A95E9F782E0A6
:100C20008C83898783E08E8761E0CE0101966ADC40
:100C3000882361F061E0CE01069664DC882331F000
:100C400061E0CE010B96DF91CF915CCC80E0DF912B
:100C5000CF910895CF93C62F20910D022430F1F447
:100C6000FC014489558966897789452B462B472B9A
:100C7000A9F081818F708093E9008091E80085FF61
:100C800004C0C093F10080E00AC08091E8008E7734
:100C90008093E80097DC8823A1F301C082E0CF9124
:100CA0000895FB01682F84859585D4DF882319F08A
:100CB0002FEF3FEF02C020E030E0C90108952091FE
:100CC0000D02243051F5FC014489558966897789E4
:100CD000452B462B472B09F181818F708093E900CA
:100CE0003091F3002091F200932F80E0822B892B2A
:100CF00011F480E008959091E8008091E8008E77EB
:100D00008093E80095FDF5CF5DDC811107C09091DF
:100D1000E8009E779093E800089582E0089520917E
:100D20000D02243089F4FC0144895589668977894C
:100D3000452B462B472B41F021812F702093E90052
:100D40002091E80020FDBBCF089520910D022430B2
:100D500019F02FEF3FEF2EC0FC01448955896689B9
:100D60007789452B462B472BA1F386818F70809383
:100D7000E9008091E80082FFECCF3091F3002091F0
:100D8000F200932F80E0822B892B21F02091F1003B
:100D900030E002C02FEF3FEF5091F3004091F2009E
:100DA000952F80E0842B892B29F48091E8008B77A4
:100DB0008093E800C9010895FC0184859585C5DF0D
:100DC0009C0197FF02C02EEF3FEFC9010895FB0180
:100DD0002EE0DB011D922A95E9F723E0238321E52C
:100DE00036E0318720872CED36E0338722879587E0
:100DF000848708950895CF93DF93EC018091E800F4
:100E000083FFA7C0888190E02091120230911302E5
:100E10002817390709F09DC080910F02813261F0D7
:100E200020F4803209F095C03DC0823209F46DC0D3
:100E3000833209F08EC07DC080910E02813A09F0A4
:100E400088C08091E800877F8093E8008091E80067
:100E500080FFFCCF4C895D896E897F894093F100CA
:100E6000BB27A72F962F852F8093F100CB01AA27B0
:100E7000BB278093F100472F55276627772740939C
:100E8000F100888D8093F100898D8093F1008A8D27
:100E90008093F1008091E8008E778093E800DF91E5
:100EA000CF916FCB80910E02813209F052C08091B8
:100EB000E800877F8093E80005C080910D028823B9
:100EC00009F447C08091E80082FFF7CF3091F1002C
:100ED0002091F1009091F1008091F1003C8B2D8BDD
:100EE0009E8B8F8B8091F100888F8091F100898F8C
:100EF0008091F1008A8F8091E8008B778093E800E1
:100F000040DBCE01DF91CF9175CF80910E0281320F
:100F100001F58091E800877F8093E80032DB8091C3
:100F2000100290911102998B888BCE01DF91CF91A5
:100F300034C980910E02813261F48091E800877F8C
:100F40008093E8001EDB60911002CE01DF91CF910B
:100F500051CFDF91CF910895CF92DF92EF92FF9220
:100F6000CF93DF93EC016C597F4F882777FD8095F5
:100F7000982F2DD46B017C0120E030E040E45FE34A
:100F8000B2D420E030E048E452E486D3EDD3C61773
:100F9000D707B4F020E030E040EA5FE3C701B601D4
:100FA000A2D420E030E048E452E476D320E030E000
:100FB00040E85FE30DD3D8D321E06C177D070CF434
:100FC00020E0822F90E0DF91CF91FF90EF90DF90B3
:100FD000CF900895CF92DF92EF92FF92CF93DF935D
:100FE000EC0164567109882777FD8095982FEFD31F
:100FF0006B017C0120E030E040E45FE374D420E04A
:1010000030E048E452E448D3AFD3C617D707B4F072
:1010100020E030E040EA5FE3C701B60164D420E09D
:1010200030E048E452E438D320E030E040E85FE3C9
:10103000CFD29AD321E06C177D070CF420E0822FE9
:1010400090E0DF91CF91FF90EF90DF90CF900895E7
:101050001F920F920FB60F9211242F938F939F938D
:10106000EF93FF932CB126FB222720F981E028275C
:1010700080912801909129010196909329018093F4
:10108000280180912701853618F086E0809326019B
:10109000809126018430B9F130F4823059F08330E8
:1010A00009F064C016C0853009F453C0863009F0D9
:1010B0005DC056C021115EC0809128019091290128
:1010C0008436910508F447C01092F401109227016C
:1010D0001CC0213009F04CC020912701E22FF0E024
:1010E0008091280190912901EE0FFF1FE65DFE4FD0
:1010F000918380832F5F2093270110922901109202
:10110000280184E023C0211119C020912701E22F7A
:10111000F0E08091280190912901EE0FFF1FE65D1C
:10112000FE4F918380832F5F209327011092290126
:101130001092280183E0809326011AC08091280133
:101140009091290185369105A8F085E080932601CC
:1011500011C021110FC0109229011092280108C05E
:1011600081E08093F40185E080932601211102C083
:10117000479A01C04798FF91EF919F918F912F91CE
:101180000F900FBE0F901F9018951092C00081E035
:101190008093C1001092C2001092C3001092C4004C
:1011A000EFEBF0E083E0808380E28093D100108257
:1011B0001092BF001092BE0008958F929F92AF923E
:1011C000BF92CF92DF92EF92FF920F931F93CF9334
:1011D000DF93EB0180912701863110F480E05EC03F
:1011E000E885F9858281938160E679E0B5DE892B17
:1011F000A9F353E0A52EB12C02E010E0C12CD12CB4
:10120000760138C0C801880F991FE885F985E80F75
:10121000F91F8081918168E572E0DCDE892B91F114
:101220004501880C991CE885F985E80DF91D808138
:10123000918160EB74E090DE892B39F0CC0CDD1CE1
:10124000EE1CFF1C6894C0F810C0E885F985E80D15
:10125000F91D8081918168E572E07EDE892B09F4B9
:10126000BDCFCC0CDD1CEE1CFF1C0E5F1F4F82E0BF
:10127000A80EB11C8091270190E0A816B9060CF4C5
:10128000C1CF01C0850101501109159507951F8334
:101290000E83CA82DB82EC82FD8281E0DF91CF91F6
:1012A0001F910F91FF90EF90DF90CF90BF90AF9084
:1012B0009F908F9008950895F89467DF84E080935D
:1012C0007200789482E0809326011092270108959D
:1012D00082E080932601109227010895CF93DF9337
:1012E000EC01FB018AE291E09187808780912701E0
:1012F000828713868091F401848715868091260168
:10130000853031F4CE0159DF811104C0CE01E0DF18
:1013100080E001C081E0DF91CF9108956E9886EF63
:1013200091E0CACF0F931F93CF93DF93CDB7DEB772
:101330002E970FB6F894DEBF0FBECDBF8C01BE0155
:101340006F5F7F4F86EF91E0C9DF882399F04B8173
:101350005C816D817E817695679557954795F801FB
:10136000408351836283738386EF91E0B1DF21E094
:1013700030E002C020E030E0C9012E960FB6F894AC
:10138000DEBF0FBECDBFDF91CF911F910F910895AA
:10139000CF93DF9300D000D0CDB7DEB7CE0101965A
:1013A000C1DF892BB9F089819A81AB81BC8191FF22
:1013B0000FC080959095A095B0959370AA27BB27F4
:1013C0000196A11DB11D22273327281B390B04C00C
:1013D0009C0102C020E034E0C9010F900F900F90F3
:1013E0000F90DF91CF91089586EF91E064CF8095C3
:1013F0008EBD0DB407FEFDCF0895CF93DF939C0102
:1014000037FF04C088279927821B930BE0E0F0E0A8
:10141000CAE0D0E0BE01DED2DC01A55EBE4F8C91F9
:10142000DF01AA5EBD4F8C93CB013196009761F42A
:1014300005C0DF01AA5EBD4F1C923196E430F10574
:10144000C1F737FF08C004C0E430F10519F7F9CF40
:1014500080E480931902DF91CF9108951F920F923B
:101460000FB60F9211242F933F934F935F936F9377
:101470007F938F939F93AF93BF93EF93FF932091AD
:10148000F70181E090E001C0880F2A95EAF7AFDF0D
:10149000E091F701F0E0EA5EFD4F8081A8DF289837
:1014A000289A8091F7018F5F8093F7018091F7016F
:1014B000843011F41092F701FF91EF91BF91AF9139
:1014C0009F918F917F916F915F914F913F912F915C
:1014D0000F900FBE0F901F9018951F920F920FB68E
:1014E0000F9211242F933F934F935F936F937F93AA
:1014F0008F939F93AF93BF93EF93FF934A9B08C043
:101500004B9B02C082E501C08CE48093FA0120C0AD
:101510004B9B0AC08091FA018C34C1F48091F80190
:101520009091F901019709C08091FA01823571F417
:101530008091F8019091F90101969093F9018093BF
:10154000F8018091F8019091F90157DF1092FA01AA
:10155000FF91EF91BF91AF919F918F917F916F918B
:101560005F914F913F912F910F900FBE0F901F9061
:10157000189597FD02C02A9801C02A9A9C0197FFEE
:1015800004C022273327281B390BA9015527509364
:10159000890040938800211103C02C988C9804C0C6
:1015A0002C9A97FD03C08C9A8E9808958C988E9AE9
:1015B000089589E88093800084E0809381001092F0
:1015C0008200259A249A229A80E090E0D2CF505847
:1015D000BB27AA270ED04DC13ED130F043D120F019
:1015E00031F49F3F11F41EF433C10EF4E095E7FB94
:1015F00029C1E92F4FD180F3BA1762077307840717
:10160000950718F071F49EF567C10EF4E0950B2E66
:10161000BA2FA02D0B01B90190010C01CA01A00144
:101620001124FF27591B99F0593F50F4503E68F19F
:101630001A16F040A22F232F342F4427585FF3CFE0
:10164000469537952795A795F0405395C9F77EF4B1
:101650001F16BA0B620B730B840BBAF09150A1F0FA
:10166000FF0FBB1F661F771F881FC2F70EC0BA0F80
:10167000621F731F841F48F4879577956795B79508
:10168000F7959E3F08F0B3CF9395880F08F0992700
:10169000EE0F9795879508950CD0EBC0E3D040F0FE
:1016A000DAD030F021F45F3F19F0CCC0511115C1F0
:1016B000CFC0F0D098F39923C9F35523B1F3951B0C
:1016C000550BBB27AA2762177307840738F09F5F63
:1016D0005F4F220F331F441FAA1FA9F333D00E2ED2
:1016E0003AF0E0E830D091505040E695001CCAF73F
:1016F00029D0FE2F27D0660F771F881FBB1F261704
:1017000037074807AB07B0E809F0BB0B802DBF01D6
:10171000FF2793585F4F2AF09E3F510568F092C013
:10172000DCC05F3FECF3983EDCF3869577956795D8
:10173000B795F7959F5FC9F7880F911D9695879587
:1017400097F90895E1E0660F771F881FBB1F6217A6
:1017500073078407BA0720F0621B730B840BBA0B64
:10176000EE1F88F7E095089504D06894B111B5C0D4
:10177000089598D088F09F5790F0B92F9927B751C6
:10178000A0F0D1F0660F771F881F991F1AF0BA9545
:10179000C9F712C0B13081F09FD0B1E008959CC06C
:1017A000672F782F8827B85F39F0B93FCCF386953B
:1017B00077956795B395D9F73EF490958095709598
:1017C00061957F4F8F4F9F4F0895E89409C097FB15
:1017D0003EF490958095709561957F4F8F4F9F4F08
:1017E0009923A9F0F92F96E9BB279395F69587954C
:1017F00077956795B795F111F8CFFAF4BB0F11F40F
:1018000060FF1BC06F5F7F4F8F4F9F4F16C08823B5
:1018100011F096E911C0772321F09EE8872F762FEB
:1018200005C0662371F096E8862F70E060E02AF02C
:101830009A95660F771F881FDAF7880F9695879518
:1018400097F9089597F99F6780E870E060E0089540
:101850009FEF80EC089500240A94161617061806C8
:101860000906089500240A941216130614060506A4
:101870000895092E0394000C11F4882352F0BB0F35
:1018800040F4BF2B11F460FF04C06F5F7F4F8F4F98
:101890009F4F089557FD9058440F551F59F05F3FD3
:1018A00071F04795880F97FB991F61F09F3F79F082
:1018B00087950895121613061406551FF2CF469504
:1018C000F1DF08C0161617061806991FF1CF869586
:1018D0007105610508940895E894BB27662777276A
:1018E000CB0197F908950BD0C4CFB5DF28F0BADF4C
:1018F00018F0952309F0A6CFABCF1124EECFCADFA5
:10190000A0F3959FD1F3950F50E0551F629FF00112
:10191000729FBB27F00DB11D639FAA27F00DB11D6B
:10192000AA1F649F6627B00DA11D661F829F2227F4
:10193000B00DA11D621F739FB00DA11D621F839F7B
:10194000A00D611D221F749F3327A00D611D231F51
:10195000849F600D211D822F762F6A2F11249F579F
:1019600050408AF0E1F088234AF0EE0FFF1FBB1FC2
:10197000661F771F881F91505040A9F79E3F510561
:1019800070F060CFAACF5F3FECF3983EDCF3869512
:1019900077956795B795F795E7959F5FC1F7FE2B0C
:1019A000880F911D9695879597F90895AA1BBB1BE3
:1019B00051E107C0AA1FBB1FA617B70710F0A61B4F
:1019C000B70B881F991F5A95A9F780959095BC0170
:1019D000CD01089597FB072E16F4009406D077FDED
:1019E00008D0E4DF07FC05D03EF4909581959F4F29
:1019F0000895709561957F4F0895EE0FFF1F059034
:101A0000F491E02D099485FD33C08062911130C0BE
:101A100081568A51E0F708950F931F93CF93DF9378
:101A20008C01EB018B8181FD03C00FEF1FEF1AC00A
:101A300082FF0DC02E813F818C819D81281739073F
:101A400064F4E881F9810193F983E88306C0E885AD
:101A5000F985802F0995892B41F78E819F81019609
:101A60009F838E83C801DF91CF911F910F910895BD
:0A1A7000992788270895F894FFCF06
:101A7A000083100000010410000001820800000128
:101A8A0000000000000000000000003F065B4F66F7
:061A9A006D7D277F6F0047
:00000001FF
