:100000009CC00000C1C00000BFC000000C94320BB7
:10001000BBC00000B9C00000B7C00000B5C0000000
:10002000B3C00000B1C0000081C300004AC400009A
:10003000ABC00000A9C00000A7C00000A5C0000020
:10004000A3C00000A1C000009FC000009DC0000030
:100050009BC0000099C0000097C000000C94F30AF8
:1000600093C0000091C000008FC000008DC0000050
:100070008BC0000089C0000087C0000085C0000060
:1000800083C0000081C000007FC000007DC0000070
:100090007BC0000079C0000077C0000075C0000080
:1000A00073C000000C94E3086FC000001C034C00F8
:1000B000550046004100200043004400430020005A
:1000C000440065006D006F000000180344006500E7
:1000D00061006E002000430061006D006500720049
:1000E000610000000403090409023E00020100C08F
:1000F000320904000001020201000524001001047D
:100100002402060524060001070582030800FF09F2
:10011000040100020A0000000705040210000507A0
:100120000583021000051201100102000008EB0314
:10013000442001000102DC01B90A11241FBECFEFE7
:10014000DAE0DEBFCDBF11E0A0E0B1E0E0E8F1E22F
:1001500002C005900D92AC32B107D9F722E0ACE2B3
:10016000B1E001C01D92A032B207E1F711E0CAE38D
:10017000D1E004C02297FE010E94EB0DC833D107E5
:10018000C9F754D00C94BE103BCF0895089580E079
:1001900091E060C580E091E053C608958A3621E081
:1001A000920791F02CF4893621E0920799F409C066
:1001B0008B3641E0940759F0811524E0920751F401
:1001C0000895299A8D9A089529988D98089580E028
:1001D00090E006C09C0121503F4F2F3F314010F46A
:1001E0000C94830B0895CF9384B7877F84BF88E1F5
:1001F0000FB6F89480936000109260000FBEC0E8C4
:1002000080E00FB6F894C0936100809361000FBE48
:1002100070D2C5BFC5BF0E944F0A0E94A30B3F9A70
:10022000219A849A859A869ACF910895CF93DF93E5
:10023000CDB7DEB7DA950FB6F894DEBF0FBECDBFEF
:10024000D2DF61E072E080E091E0E6D5789400E0F2
:1002500010E0F5E2CF2EF1E0DF2EAA24A394B12C1A
:10026000AC0EBD1E80E091E095D57C01FF24C70156
:100270000E94F10D892B59F061E072E0C7010E94E4
:10028000F80D61E072E08AE090E00E94F80D1F93A3
:100290000F93DF92CF92BF92AF920E94240E0E94E2
:1002A0008D0A0F900F900F900F900F900F90811567
:1002B00024E0920709F072DF80E091E055D5AED4DA
:1002C0008FEF95EA2EE0815090402040E1F700C08A
:1002D00000000F5F1F4FC6CF292F33272230310573
:1002E00039F02330310549F02130310521F128C0A2
:1002F000EEE3F0E088EE90E027C099278130910589
:1003000061F08230910581F0892BD1F4E4EEF0E0C8
:10031000E491F0E084EE90E017C0EAECF0E0E491C4
:10032000F0E08AEC90E010C0ECEAF0E0E491F0E05C
:100330008CEA90E009C0E2E1F0E086E291E004C0DE
:10034000E0E0F0E080E090E0DA018D939C93CF0153
:10035000089540911A0250911B024617570748F022
:100360006115710539F44091E8004E774093E8003B
:1003700001C0BA01FC0140E033C080911302882320
:1003800009F444C0853009F443C08091E80083FD3E
:1003900041C08091E80082FD33C08091E80080FF79
:1003A0001FC09091F3008091F200392F20E0A90145
:1003B000482BCA0106C041914093F1006150710978
:1003C00001966115710519F088309105A0F341E09F
:1003D000089709F040E08091E8008E778093E8006C
:1003E0006115710551F64111C8CF0AC08091130201
:1003F000882361F0853061F08091E80083FD0AC0B8
:100400008091E80082FFF2CF80E0089582E00895B5
:1004100083E0089581E0089540911A0250911B02F3
:100420004617570748F06115710539F44091E80007
:100430004E774093E80001C0BA01FC0140E034C0AF
:1004400080911302882309F445C0853009F444C023
:100450008091E80083FD42C08091E80082FD34C0B5
:100460008091E80080FF20C09091F3008091F2001D
:10047000392F20E0A901482BCA0107C044914093BD
:10048000F10031966150710901966115710519F0FD
:100490008830910598F341E0089709F040E0809199
:1004A000E8008E778093E8006115710549F64111E7
:1004B000C7CF0AC080911302882361F0853061F0B4
:1004C0008091E80083FD0AC08091E80082FFF2CFAE
:1004D00080E0089582E0089583E0089581E0089522
:1004E000982F2CC09093E900981739F07091EC0088
:1004F0002091ED005091F00003C0242F762F50E0A2
:1005000021FD02C09F5F1AC03091EB003E7F309307
:10051000EB003091ED003D7F3093ED003091EB002A
:1005200031603093EB007093EC002093ED0050931A
:10053000F0002091EE0027FDE5CF07C0973090F244
:100540008F708093E90081E0089580E008950F9313
:100550001F93CF93DF93062FEC0110E02FC09881FB
:10056000911103C01F5F259629C02C81E981FA8172
:100570007B81892F8F70873010F080E022C022307D
:1005800010F056E001C052E028E030E040E003C047
:100590004F5F220F331F2E173F07D0F34295407F46
:1005A000452B692F661F6627661F90E4799F90018F
:1005B0001124622B95DF8111D5CFDFCF1013CFCF60
:1005C00081E0DF91CF911F910F91089580911402E6
:1005D00087FD05C08091E80080FF0EC012C08091A9
:1005E000E80082FD05C0809113028111F8CF0895C3
:1005F0008091E8008B7708C0809113028111EACFC7
:1006000008958091E8008E778093E80008958091A6
:10061000E4009091E50045E62091EC0020FD1FC02C
:1006200023C020911302222391F0253091F02091D4
:10063000EB0025FD10C02091E4003091E500281763
:10064000390751F34150C90139F784E0089582E038
:10065000089583E0089581E0089580E00895209151
:10066000E80020FFDECFF9CF2091E80022FFD9CFAC
:10067000F4CF0F931F93CF93DF934BD052D0C8ED9D
:10068000D0E088818F77888388818068888388819B
:100690008F7D888319BC1092130210920F02109262
:1006A00011021092100200EE10E0F80180818B7FA1
:1006B000808388818160888342E060E080E010DF91
:1006C000E1EEF0E080818E7F8083E2EEF0E08081D9
:1006D00081608083808188608083F80180818E7F43
:1006E0008083888180618883DF91CF911F910F91F2
:1006F0000895E8EDF0E080818F7E8083E7EDF0E003
:1007000080818160808384E082BF81E080931202D7
:10071000B0CFE8EDF0E080818E7F80831092E20020
:1007200008951092DA001092E10008951F920F923E
:100730000FB60F9211242F933F934F935F936F93B4
:100740007F938F939F93AF93BF93EF93FF9380918A
:10075000E10082FF0AC08091E20082FF06C0809122
:10076000E1008B7F8093E10058D28091DA0080FF16
:100770001DC08091D80080FF19C08091DA008E7F63
:100780008093DA008091D90080FF0CC080E189BDA0
:1007900082E189BD09B400FEFDCF81E080931302A0
:1007A000F4DC04C019BC10921302F0DC8091E1006B
:1007B00080FF18C08091E20080FF14C08091E200A9
:1007C0008E7F8093E2008091E20080618093E2005E
:1007D0008091D80080628093D80019BC85E0809316
:1007E00013021BD28091E10084FF2FC08091E200B0
:1007F00084FF2BC080E189BD82E189BD09B400FE80
:10080000FDCF8091D8008F7D8093D8008091E1004A
:100810008F7E8093E1008091E2008F7E8093E200E2
:100820008091E20081608093E20080910F02882332
:1008300011F084E007C08091E30087FF02C083E0ED
:1008400001C081E080931302E8D18091E10083FF31
:1008500027C08091E20083FF23C08091E100877F61
:100860008093E10082E08093130210920F02809146
:10087000E1008E7F8093E1008091E2008E7F809383
:10088000E2008091E20080618093E20042E060E05B
:1008900080E026DE8091F00088608093F000BDD17A
:1008A000FF91EF91BF91AF919F918F917F916F9148
:1008B0005F914F913F912F910F900FBE0F901F901E
:1008C00018951F920F920FB60F9211242F933F93FA
:1008D0004F935F936F937F938F939F93AF93BF9348
:1008E000CF93EF93FF938091E9008F709091EC008C
:1008F00090FF02C090E801C090E0C92FC82B109271
:10090000E9008091F000877F8093F00078941CD0FC
:100910001092E9008091F00088608093F000CF7021
:10092000C093E900FF91EF91CF91BF91AF919F915B
:100930008F917F916F915F914F913F912F910F9088
:100940000FBE0F901F9018951F93CF93DF93CDB7D5
:10095000DEB7AC970FB6F894DEBF0FBECDBFE4E1B3
:10096000F2E08091F100819322E0EC31F207C9F7C7
:1009700011DC8091E80083FF38C1809114029091CE
:100980001502953009F489C038F49130C9F170F03E
:10099000933009F02AC134C0983009F4F8C0993076
:1009A00009F407C1963009F020C19DC0803821F0BC
:1009B000823809F01AC108C080911002909111028A
:1009C0009923A1F0826012C08091180290911902BF
:1009D0008F709927873008F008C18093E9008091D3
:1009E000EB0085FB882780F91092E9009091E800E0
:1009F000977F9093E8008093F1001092F100D2C0AD
:100A0000882319F0823009F0F0C08F7121F0823014
:100A100009F0EBC00BC080911602813009F0E5C0EF
:100A2000933009F080E08093110231C0809116026A
:100A300081112DC080911802909119028F70992711
:100A4000282F2150263008F0D0C08093E900209153
:100A5000EB0020FF1CC020911502233021F480916F
:100A6000EB00806212C09091EB0090619093EB00DC
:100A700021E030E001C0220F8A95EAF72093EA00D6
:100A80001092EA008091EB0088608093EB00109256
:100A9000E9008091E800877F88C08111A6C080911D
:100AA0001602909117028F779927182F9091E300E3
:100AB0009078982B9093E3008091E800877F809353
:100AC000E80084DD8091E80080FFFCCF8091E300A6
:100AD00080688093E300112311F083E001C082E07D
:100AE0008093130282C08058823008F07EC08091CB
:100AF0001602909117028C3D23E0920771F583E076
:100B00008A838AE289834FB7F894DE01139620E046
:100B10003EE051E2E32FF0E050935700E49120FFD4
:100B200003C0E295EF703F5FEF708E2F90E0EA30E8
:100B300010F0C79601C0C0968D939D932F5F24310E
:100B400049F74FBF8091E800877F8093E8006AE211
:100B500070E0CE010196FDDB14C060911802709127
:100B60001902AE01455D5F4FB7DB009709F43DC048
:100B70002091E800277F2093E800BC018BA59CA56D
:100B80004BDC8091E8008B778093E8002EC08038A2
:100B900061F58091E800877F8093E80080910F02E3
:100BA0008093F1008091E8008E778093E8000EDD5D
:100BB0001CC081111AC0909116029230B0F480913D
:100BC000E800877F8093E80090930F02FFDC80911C
:100BD0000F02811104C08091E30087FF02C084E00E
:100BE00001C081E080931302D2DA8091E80083FF94
:100BF0000AC08091E800877F8093E8008091EB0035
:100C000080628093EB00AC960FB6F894DEBF0FBE07
:100C1000CDBFDF91CF911F9108950895CF9380911B
:100C200013028823A9F08091E9008F709091EC0065
:100C300090FF02C090E801C090E0C92FC82B10922D
:100C4000E9008091E80083FD7FDECF70C093E9006A
:100C5000CF910895CF93DF93EC014096FC018BE098
:100C6000DF011D928A95E9F782E08C83898783E012
:100C70008E8761E0CE0101966ADC882361F061E035
:100C8000CE01069664DC882331F061E0CE010B963C
:100C9000DF91CF915CCC80E0DF91CF910895CF932D
:100CA000C62F209113022430F1F4FC0144895589A8
:100CB00066897789452B462B472BA9F081818F7058
:100CC0008093E9008091E80085FF04C0C093F100A3
:100CD00080E00AC08091E8008E778093E80097DC7E
:100CE0008823A1F301C082E0CF910895FB01682F12
:100CF00084859585D4DF882319F02FEF3FEF02C05C
:100D000020E030E0C901089520911302243051F50C
:100D1000FC014489558966897789452B462B472BE9
:100D200009F181818F708093E9003091F300209167
:100D3000F200932F80E0822B892B11F480E008953C
:100D40009091E8008091E8008E778093E80095FD0F
:100D5000F5CF5DDC811107C09091E8009E779093FC
:100D6000E800089582E0089520911302243089F468
:100D7000FC014489558966897789452B462B472B89
:100D800041F021812F702093E9002091E80020FD9F
:100D9000BBCF089520911302243019F02FEF3FEFBD
:100DA0002EC0FC014489558966897789452B462BDD
:100DB000472BA1F386818F708093E9008091E80032
:100DC00082FFECCF3091F3002091F200932F80E06E
:100DD000822B892B21F02091F10030E002C02FEF0F
:100DE0003FEF5091F3004091F200952F80E0842B6B
:100DF000892B29F48091E8008B778093E800C90162
:100E00000895FC0184859585C5DF9C0197FF02C08C
:100E10002EEF3FEFC9010895FB012EE0DB011D928B
:100E20002A95E9F723E0238326E736E031872087F8
:100E300021E037E0338722879587848708950895D6
:100E4000CF93DF93EC018091E80083FFA7C08881F6
:100E500090E020911802309119022817390709F003
:100E60009DC080911502813261F020F4803209F03A
:100E700095C03DC0823209F46DC0833209F08EC046
:100E80007DC080911402813A09F088C08091E80009
:100E9000877F8093E8008091E80080FFFCCF4C8939
:100EA0005D896E897F894093F100BB27A72F962F1C
:100EB000852F8093F100CB01AA27BB278093F100F7
:100EC000472F5527662777274093F100888D809319
:100ED000F100898D8093F1008A8D8093F1008091DB
:100EE000E8008E778093E800DF91CF916FCB8091FF
:100EF0001402813209F052C08091E800877F80930C
:100F0000E80005C080911302882309F447C080914E
:100F1000E80082FFF7CF3091F1002091F10090912D
:100F2000F1008091F1003C8B2D8B9E8B8F8B8091FB
:100F3000F100888F8091F100898F8091F1008A8F74
:100F40008091E8008B778093E80040DBCE01DF9151
:100F5000CF9175CF80911402813201F58091E80024
:100F6000877F8093E80032DB809116029091170210
:100F7000998B888BCE01DF91CF910FC9809114029C
:100F8000813261F48091E800877F8093E8001EDB66
:100F900060911602CE01DF91CF9151CFDF91CF91B9
:100FA00008959C01442737FD4095542F60E47FE16C
:100FB00080E090E0ECD5C90142E04093C00041E000
:100FC0004093C1001092C2004093C3001092C4002D
:100FD000EFEBF0E030832093D10063E070E0B0D518
:100FE00070836093CF000895CB0110927200D9CF27
:100FF000CF92DF92EF92FF92CF93DF936A017B0152
:10100000E90166E270E0F0DF8091C00080648093C7
:10101000C0008FE795E20197F1F700C000008091D2
:10102000C0008F7B8093C000EFE5F9E03197F1F7C6
:1010300000C00000219781E090E0A0E0B0E00C2E1D
:1010400004C0880F991FAA1FBB1F0A94D2F729C09A
:10105000AC01BD014C215D216E217F212091C0009A
:1010600020642093C000452B462B472B29F0EFEB43
:10107000F2E13197F1F704C0EFE5F9E03197F1F7CC
:1010800000C000002091C0002F7B2093C000EFE53E
:10109000F9E03197F1F700C00000B695A795979554
:1010A00087950097A105B10599F68091C0008064ED
:1010B0008093C0008FE599E00197F1F700C0000030
:1010C000DF91CF91FF90EF90DF90CF900895CF9276
:1010D000DF92EF92FF92CF93DF93EC016C597F4F39
:1010E000882777FD8095982F3CD46B017C0120E008
:1010F00030E040E45FE3C1D420E030E048E452E473
:1011000095D3FCD3C617D707B4F020E030E040EA0F
:101110005FE3C701B601B1D420E030E048E452E417
:1011200085D320E030E040E85FE31CD3E7D321E043
:101130006C177D070CF420E0822F90E0DF91CF91B7
:10114000FF90EF90DF90CF900895CF92DF92EF92D3
:10115000FF92CF93DF93EC0164567109882777FDE6
:101160008095982FFED36B017C0120E030E040E4B5
:101170005FE383D420E030E048E452E457D3BED3A9
:10118000C617D707B4F020E030E040EA5FE3C701BC
:10119000B60173D420E030E048E452E447D320E0C5
:1011A00030E040E85FE3DED2A9D321E06C177D0791
:1011B0000CF420E0822F90E0DF91CF91FF90EF9030
:1011C000DF90CF9008951F920F920FB60F921124C7
:1011D0002F938F939F93EF93FF932CB126FB22279E
:1011E00020F981E0282780912E0190912F0101960E
:1011F00090932F0180932E0180912D01853618F058
:1012000086E080932C0180912C018430B9F130F478
:10121000823059F0833009F064C016C0853009F47B
:1012200053C0863009F05DC056C021115EC0809168
:101230002E0190912F018436910508F447C0109239
:10124000FA0110922D011CC0213009F04CC02091F0
:101250002D01E22FF0E080912E0190912F01EE0FF1
:10126000FF1FE05DFE4F918380832F5F20932D0150
:1012700010922F0110922E0184E023C0211119C079
:1012800020912D01E22FF0E080912E0190912F010D
:10129000EE0FFF1FE05DFE4F918380832F5F209351
:1012A0002D0110922F0110922E0183E080932C01CA
:1012B0001AC080912E0190912F0185369105A8F0DA
:1012C00085E080932C0111C021110FC010922F01D5
:1012D00010922E0108C081E08093FA0185E080938E
:1012E0002C01211102C0479A01C04798FF91EF914C
:1012F0009F918F912F910F900FBE0F901F90189577
:101300001092C00081E08093C1001092C200109240
:10131000C3001092C400EFEBF0E083E0808380E232
:101320008093D10010821092BF001092BE000895E9
:101330008F929F92AF92BF92CF92DF92EF92FF92E5
:101340000F931F93CF93DF93EB0180912D01863193
:1013500010F480E05EC0E885F9858281938160E6C3
:1013600079E0B5DE892BA9F353E0A52EB12C02E07C
:1013700010E0C12CD12C760138C0C801880F991F0C
:10138000E885F985E80FF91F8081918168E572E0B1
:10139000DCDE892B91F14501880C991CE885F985E3
:1013A000E80DF91D8081918160EB74E090DE892B5E
:1013B00039F0CC0CDD1CEE1CFF1C6894C0F810C08A
:1013C000E885F985E80DF91D8081918168E572E075
:1013D0007EDE892B09F4BDCFCC0CDD1CEE1CFF1C7E
:1013E0000E5F1F4F82E0A80EB11C80912D0190E08E
:1013F000A816B9060CF4C1CF01C08501015011092E
:10140000159507951F830E83CA82DB82EC82FD82CD
:1014100081E0DF91CF911F910F91FF90EF90DF90CE
:10142000CF90BF90AF909F908F9008950895F894BB
:1014300067DF84E080937200789482E080932C01CF
:1014400010922D01089582E080932C0110922D01BD
:101450000895CF93DF93EC01FB0180E391E0918746
:10146000808780912D01828713868091FA0184877D
:10147000158680912C01853031F4CE0159DF811120
:1014800004C0CE01E0DF80E001C081E0DF91CF91B8
:1014900008959A01AB01BC018BEF91E0A9CD6E9844
:1014A0008CEF91E0C4CF0F931F93CF93DF93CDB711
:1014B000DEB72E970FB6F894DEBF0FBECDBF8C01FE
:1014C000BE016F5F7F4F8CEF91E0C3DF882379F01F
:1014D0004B815C816D817E81F80140835183628301
:1014E00073838CEF91E0AFDF21E030E002C020E0B9
:1014F00030E0C9012E960FB6F894DEBF0FBECDBF07
:10150000DF91CF911F910F910895BC01882777FD3E
:101510008095982F4AE050E0BCCFCF93DF9300D066
:1015200000D0CDB7DEB7CE010196BDDF892BB9F073
:1015300089819A81AB81BC8191FF0FC08095909584
:10154000A095B0959370AA27BB270196A11DB11D48
:1015500022273327281B390B04C09C0102C020E03E
:1015600034E0C9010F900F900F900F90DF91CF9151
:1015700008958CEF91E05ACF80958EBD0DB407FE93
:10158000FDCF0895CF93DF939C0137FF04C08827D8
:101590009927821B930BE0E0F0E0CAE0D0E0BE01A7
:1015A000E3D2DC01A55EBE4F8C91DF01A45EBD4F8E
:1015B0008C93CB013196009761F405C0DF01A45EE6
:1015C000BD4F1C923196E430F105C1F737FF08C0DA
:1015D00004C0E430F10519F7F9CF80E480931F02CD
:1015E000DF91CF9108951F920F920FB60F921124A1
:1015F0002F933F934F935F936F937F938F939F931B
:10160000AF93BF93EF93FF932091FD0181E090E0B2
:1016100001C0880F2A95EAF7AFDFE091FD01F0E005
:10162000E45EFD4F8081A8DF2898289A8091FD0113
:101630008F5F8093FD018091FD01843011F4109241
:10164000FD01FF91EF91BF91AF919F918F917F919C
:101650006F915F914F913F912F910F900FBE0F901F
:101660001F9018951F920F920FB60F9211242F936F
:101670003F934F935F936F937F938F939F93AF931A
:10168000BF93EF93FF934A9B08C04B9B02C082E538
:1016900001C08CE48093000225C04B9B0AC080915E
:1016A00000028C34E9F48091FE019091FF010197D2
:1016B00009C080910002823599F48091FE019091D9
:1016C000FF0101969093FF018093FE018091FE013E
:1016D0009091FF0157DF8091FE019091FF0115DF8E
:1016E00010920002FF91EF91BF91AF919F918F9166
:1016F0007F916F915F914F913F912F910F900FBE0E
:101700000F901F90189597FD02C02A9801C02A9A41
:101710009C0197FF04C022273327281B390BA901FE
:1017200055275093890040938800211103C02C98BD
:101730008C9804C02C9A97FD03C08C9A8E980895BB
:101740008C988E9A089589E88093800084E0809335
:10175000810010928200259A249A229A80E090E0DB
:10176000D2CF5058BB27AA270ED04DC13ED130F062
:1017700043D120F031F49F3F11F41EF433C10EF435
:10178000E095E7FB29C1E92F4FD180F3BA17620733
:1017900073078407950718F071F49EF567C10EF47E
:1017A000E0950B2EBA2FA02D0B01B90190010C0171
:1017B000CA01A0011124FF27591B99F0593F50F489
:1017C000503E68F11A16F040A22F232F342F4427E1
:1017D000585FF3CF469537952795A795F0405395D9
:1017E000C9F77EF41F16BA0B620B730B840BBAF0A9
:1017F0009150A1F0FF0FBB1F661F771F881FC2F714
:101800000EC0BA0F621F731F841F48F48795779527
:101810006795B795F7959E3F08F0B3CF9395880FDE
:1018200008F09927EE0F9795879508950CD0EBC097
:10183000E3D040F0DAD030F021F45F3F19F0CCC0B3
:10184000511115C1CFC0F0D098F39923C9F3552396
:10185000B1F3951B550BBB27AA27621773078407A3
:1018600038F09F5F5F4F220F331F441FAA1FA9F359
:1018700033D00E2E3AF0E0E830D091505040E6954B
:10188000001CCAF729D0FE2F27D0660F771F881FAC
:10189000BB1F261737074807AB07B0E809F0BB0B9B
:1018A000802DBF01FF2793585F4F2AF09E3F5105BF
:1018B00068F092C0DCC05F3FECF3983EDCF38695A5
:1018C00077956795B795F7959F5FC9F7880F911D35
:1018D0009695879597F90895E1E0660F771F881F21
:1018E000BB1F621773078407BA0720F0621B730BD4
:1018F000840BBA0BEE1F88F7E095089504D0689426
:10190000B111B5C0089598D088F09F5790F0B92FC5
:101910009927B751A0F0D1F0660F771F881F991F44
:101920001AF0BA95C9F712C0B13081F09FD0B1E07A
:1019300008959CC0672F782F8827B85F39F0B93F8A
:10194000CCF3869577956795B395D9F73EF4909546
:101950008095709561957F4F8F4F9F4F0895E894C4
:1019600009C097FB3EF490958095709561957F4FE7
:101970008F4F9F4F9923A9F0F92F96E9BB27939595
:10198000F695879577956795B795F111F8CFFAF4A5
:10199000BB0F11F460FF1BC06F5F7F4F8F4F9F4FD6
:1019A00016C0882311F096E911C0772321F09EE834
:1019B000872F762F05C0662371F096E8862F70E09A
:1019C00060E02AF09A95660F771F881FDAF7880F74
:1019D0009695879597F9089597F99F6780E870E045
:1019E00060E008959FEF80EC089500240A94161695
:1019F000170618060906089500240A9412161306FD
:101A0000140605060895092E0394000C11F488238A
:101A100052F0BB0F40F4BF2B11F460FF04C06F5FA6
:101A20007F4F8F4F9F4F089557FD9058440F551F7C
:101A300059F05F3F71F04795880F97FB991F61F050
:101A40009F3F79F087950895121613061406551FC7
:101A5000F2CF4695F1DF08C0161617061806991F33
:101A6000F1CF86957105610508940895E894BB2728
:101A700066277727CB0197F908950BD0C4CFB5DF40
:101A800028F0BADF18F0952309F0A6CFABCF1124C8
:101A9000EECFCADFA0F3959FD1F3950F50E0551F0D
:101AA000629FF001729FBB27F00DB11D639FAA27B3
:101AB000F00DB11DAA1F649F6627B00DA11D661F02
:101AC000829F2227B00DA11D621F739FB00DA11D23
:101AD000621F839FA00D611D221F749F3327A00DDD
:101AE000611D231F849F600D211D822F762F6A2F79
:101AF00011249F5750408AF0E1F088234AF0EE0FFE
:101B0000FF1FBB1F661F771F881F91505040A9F70A
:101B10009E3F510570F060CFAACF5F3FECF3983E37
:101B2000DCF3869577956795B795F795E7959F5F71
:101B3000C1F7FE2B880F911D9695879597F908950B
:101B4000AA1BBB1B51E107C0AA1FBB1FA617B707E3
:101B500010F0A61BB70B881F991F5A95A9F78095FF
:101B60009095BC01CD01089597FB072E16F40094C3
:101B700006D077FD08D0E4DF07FC05D03EF4909551
:101B800081959F4F0895709561957F4F0895A1E2CB
:101B90001A2EAA1BBB1BFD010DC0AA1FBB1FEE1FE7
:101BA000FF1FA217B307E407F50720F0A21BB30B32
:101BB000E40BF50B661F771F881F991F1A9469F7AE
:101BC00060957095809590959B01AC01BD01CF010A
:101BD0000895EE0FFF1F0590F491E02D099485FD07
:101BE0001FC2806291111CC281568A51E0F708958C
:101BF0000F931F93CF93DF938C01EB018B8181FDBA
:101C000003C00FEF1FEF1AC082FF0DC02E813F816E
:101C10008C819D812817390764F4E881F98101934B
:101C2000F983E88306C0E885F985802F0995892B1B
:101C300041F78E819F8101969F838E83C801DF913A
:101C4000CF911F910F910895AEE0B0E0E9E2FEE080
:101C50006CC20D891E8986E08C831A8309838FEFFD
:101C60009FE79E838D83CE014996AC016F89788D65
:101C7000CE01019608D0EF81F885E00FF11F1082A8
:101C80002E96E4E06EC2ACE0B0E0E8E4FEE03FC2D5
:101C90007C016B018A01FC0117821682838181FF1E
:101CA000B9C188248394912C8C0E9D1EF7019381D9
:101CB000F60193FD859193FF81916F01882309F4CB
:101CC000A5C1853239F493FD859193FF81916F0110
:101CD000853221F4B70190E08BDFE8CF512C312C15
:101CE00020E02032A8F48B3261F028F4803251F0E9
:101CF000833271F40BC08D3239F0803349F42160A6
:101D000028C02260246025C0286023C0206121C033
:101D100027FD27C0382F30533A3078F426FF06C00D
:101D2000FAE05F9E300D1124532E13C08AE0389ED6
:101D3000300D1124332E20620CC08E3221F426FD8A
:101D400065C1206406C08C3611F4206802C0883654
:101D500041F4F60193FD859193FF81916F0181110B
:101D6000C0CF982F9554933018F09052933028F4A8
:101D70000C5F1F4FFFE3F9830DC0833631F08337CB
:101D800071F0833509F05AC022C0F801808189833F
:101D90000E5F1F4F44244394512C540114C038014A
:101DA000F2E06F0E711CF801A080B18026FF03C025
:101DB000652D70E002C06FEF7FEFC5012C873ED12B
:101DC0002C0183012C856FE7262E222217C03801B3
:101DD000F2E06F0E711CF801A080B18026FF03C0F5
:101DE000652D70E002C06FEF7FEFC5012C871BD11E
:101DF0002C012C8550E8252E222A830123FC1AC0B1
:101E000005C0B70180E290E0F3DE3A94832D90E0C4
:101E100048165906B0F30EC0F50127FC859127FE40
:101E200081915F01B70190E0E3DE31103A94F1E077
:101E30004F1A51084114510479F7E5C0843611F066
:101E4000893639F5F80127FF07C0608171818281E9
:101E500093810C5F1F4F08C060817181882777FDD7
:101E60008095982F0E5F1F4F4FE6B42EB22297FF3A
:101E700009C090958095709561957F4F8F4F9F4FCA
:101E8000F0E8BF2A2AE030E0A401E3D0A82EA81889
:101E900042C0853731F43FEEB32EB2222AE030E063
:101EA00024C099EFB92EB2228F36B9F020F48835CC
:101EB00009F0ACC00DC0803721F0883709F0A6C00A
:101EC00002C020E1B22AB4FE0BC084E0B82A08C0E8
:101ED00024FF09C0E6E0BE2A06C028E030E005C0C5
:101EE00020E130E002C020E132E0F801B7FE07C097
:101EF00060817181828193810C5F1F4F06C0608178
:101F0000718180E090E00E5F1F4FA401A2D0A82E47
:101F1000A818FFE7BF22B6FE0BC02B2D2E7FA514FD
:101F200050F4B4FE0AC0B2FC08C02B2D2E7E05C0B2
:101F30007A2C2B2D03C07A2C01C0752C24FF0DC0E8
:101F4000FE01EA0DF11D8081803311F4297E09C064
:101F500022FF06C07394739404C0822F867809F020
:101F6000739423FD13C020FF0EC05A2C731458F431
:101F7000530C5718732C07C0B70180E290E02C87F0
:101F800037DE73942C857314B8F304C0731410F403
:101F9000371801C0312C24FF11C0B70180E390E055
:101FA0002C8726DE2C8522FF1CC021FF03C088E57C
:101FB00090E002C088E790E0B7010CC0822F8678DD
:101FC00081F021FD02C080E201C08BE227FD8DE29D
:101FD000B70190E00DDE05C0B70180E390E008DEB8
:101FE0005A94A514C8F3AA94F401EA0DF11DB7019F
:101FF000808190E0FDDDA110F6CF05C0B70180E241
:1020000090E0F6DD3A943110F9CF50CEF7012681F9
:10201000378102C02FEF3FEFC9012C96E2E193C058
:10202000992788270895FC010590615070400110A0
:10203000D8F7809590958E0F9F1F0895FC016150F1
:10204000704001900110D8F7809590958E0F9F1FDA
:102050000895FA01AA27283051F1203181F1E8943E
:102060006F936E7F6E5F7F4F8F4F9F4FAF4FB1E08B
:102070003ED0B4E03CD0670F781F891F9A1FA11D86
:10208000680F791F8A1F911DA11D6A0F711D811D87
:10209000911DA11D20D009F468943F912AE0269F4C
:1020A00011243019305D3193DEF6CF010895462FAB
:1020B0004770405D4193B3E00FD0C9F7F6CF462F8C
:1020C0004F70405D4A3318F0495D31FD40524193F5
:1020D00002D0A9F7EACFB4E0A695979587957795B2
:1020E0006795BA95C9F700976105710508959B0139
:1020F000AC010A2E06945795479537952795BA95C2
:10210000C9F7620F731F841F951FA01D08952F929A
:102110003F924F925F926F927F928F929F92AF9277
:10212000BF92CF92DF92EF92FF920F931F93CF93C4
:10213000DF93CDB7DEB7CA1BDB0B0FB6F894DEBF5B
:102140000FBECDBF09942A88398848885F846E8481
:102150007D848C849B84AA84B984C884DF80EE80CB
:10216000FD800C811B81AA81B981CE0FD11D0FB6D4
:10217000F894DEBF0FBECDBFED010895F894FFCFF8
:10218000008310000001041000000182080000011B
:1021900000000000000000000000003F065B4F66EA
:0C21A0006D7D277F6F2564200D0A000074
:00000001FF
