:100000009CC00000C1C00000BFC000000C94830B66
:10001000BBC00000B9C00000B7C00000B5C0000000
:10002000B3C00000B1C0000036C40000F9C3000036
:10003000ABC00000A9C00000A7C00000A5C0000020
:10004000A3C00000A1C000009FC000009DC0000030
:100050009BC0000099C0000097C000000C94430BA7
:1000600093C0000091C000008FC000008DC0000050
:100070008BC0000089C0000087C0000085C0000060
:1000800083C0000081C000007FC000007DC0000070
:100090007BC0000079C0000077C0000075C0000080
:1000A00073C000000C94D2086FC000001201100150
:1000B00002000008EB03442001000102DC010902F8
:1000C0003E00020100C032090400000102020100EA
:1000D000052400100104240206052406000107057A
:1000E00082030800FF09040100020A00000007055E
:1000F000040210000507058302100005040309042B
:1001000018034400650061006E0020004300610098
:100110006D0065007200610000001C034C0055007A
:1001200046004100200043004400430020004400FA
:1001300065006D006F000000690A11241FBECFEF3B
:10014000DAE0DEBFCDBF11E0A0E0B1E0E6E5F2E22B
:1001500002C005900D92AA33B107D9F712E0AAE3C5
:10016000B1E001C01D92A433B107E1F711E0CAE389
:10017000D1E004C02297FE010E942B0EC833D107A4
:10018000C9F7AAD00C9429113BCF0895089508957A
:100190001F9384B7877F84BF88E10FB6F89480935C
:1001A0006000109260000FBE10E880E090E00FB693
:1001B000F89410936100809361000FBE14D315BFB3
:1001C00015BF0E94FC0A0E94FD0B3F9A209A219ABB
:1001D000849A859A869A229823981F9108950E945E
:1001E000A20A9C01909314028093130241E08A3684
:1001F000940709F445C081E02B3638072CF441E020
:100200002936340791F409C081E02B36380741F0D4
:1002100044E02030340749F4089589E691E032C083
:1002200080E090E00E94CF0B2BC0C901875A9F4FFE
:10023000833B910528F430933D0120933C010895C0
:10024000C9018556904083559140F0F481E02332F6
:1002500038074CF02E503140C901880F991F0E9479
:10026000E60B289A08952A3F310554F48EE091E078
:10027000821B930B880F991F0E94E60B2898089504
:1002800080E090E00C94E60BC90181579E4F8553A6
:10029000914008F58FEF2833380759F41A9B03C0B3
:1002A00080E090E002C08CE291E00E94CF0B2998A0
:1002B0000895245D3E4F59F41B9B03C080E090E0FD
:1002C00002C08CE291E00E94CF0B299A089580E051
:1002D00090E00C94CF0B0895AF92BF92CF92DF9233
:1002E000EF92FF921F93DF93CF93CDB7DEB7C0504D
:1002F000D1400FB6F894DEBF0FBECDBF49DF86E018
:1003000091E065E172E054D578947E010894E11C97
:10031000F11CE0E0AE2EE1E0BE2E70E9C72E71E0E8
:10032000D72E86E091E008D5182F90E00E94310E7C
:10033000892B61F0812F90E065E172E00E94380E18
:100340008AE090E065E172E00E94380E1A9B02C0DC
:100350008E9A01C08E98809113029091140223E02E
:10036000883E9207FCF400D000D000D0EDB7FEB775
:100370003196ADB7BEB71296FC92EE921197B3824A
:10038000A282958384830E948C0E8DB79EB70696B9
:100390000FB6F8949EBF0FBE8DBFC70165E172E036
:1003A0000E94640E1CDF86E091E055D5B0D488EE43
:1003B00093E0F6013197F1F70197D9F7B2CF86E0D4
:1003C00091E0BDC586E091E093C5DA01923049F035
:1003D000933061F09130F9F4ECEAF0E022E130E0A2
:1003E0001EC0EEEBF0E02EE330E019C0813049F0A2
:1003F000813018F0823079F408C0ECEFF0E084919D
:1004000007C0E0E0F1E0849103C0EAE1F1E084910B
:10041000282F30E004C0E0E0F0E020E030E0ED9391
:10042000FC93C90108959C0140912E0250912F0226
:100430004617570718F4F90190E043C0611571059C
:1004400011F0AB01F8CF8091E8008E778093E8003F
:1004500040E050E0F0CF80912702882309F447C0A4
:10046000853009F446C08091E80083FD44C0809146
:10047000E80082FD36C08091E80080FF22C08091B4
:10048000F3009091F200782F60E0292F30E0262BC6
:10049000372B07C081918093F100415050402F5F6E
:1004A0003F4F4115510519F02830310598F390E080
:1004B0002830310509F491E08091E8008E7780932F
:1004C000E8004115510539F6992329F60AC08091B3
:1004D0002702882361F0853061F08091E80083FD78
:1004E0000AC08091E80082FFF2CF80E0089582E0A8
:1004F000089583E0089581E008959C0140912E02C3
:1005000050912F024617570718F4F90190E044C0A4
:100510006115710511F0AB01F8CF8091E8008E777D
:100520008093E80040E050E0F0CF809127028823DC
:1005300009F448C0853009F447C08091E80083FD84
:1005400045C08091E80082FD37C08091E80080FFBF
:1005500023C08091F3009091F200782F60E0292F62
:1005600030E0262B372B08C084918093F100319620
:10057000415050402F5F3F4F4115510519F0283031
:10058000310590F390E02830310509F491E0809135
:10059000E8008E778093E8004115510531F69923E4
:1005A00021F60AC080912702882361F0853061F02E
:1005B0008091E80083FD0AC08091E80082FFF2CFBD
:1005C00080E0089582E0089583E0089581E0089531
:1005D000382F282F2EC0822F8F708093E900231789
:1005E00021F4762F942F50E006C07091EC0090918A
:1005F000ED005091F00091FF1BC08091EB008E7FC9
:100600008093EB008091ED008D7F8093ED008091D1
:10061000EB0081608093EB007093EC009093ED0011
:100620005093F0008091EE0087FD02C080E00895B5
:100630002F5F273080F23F703093E90081E008950A
:100640000F931F93CF93DF93062FEC0110E02AC086
:100650009881992329F16B81E981FA812C81892F75
:100660008F70873018F5223010F452E001C056E048
:1006700040E028E030E003C04F5F220F331F2E1709
:100680003F07D0F36295660F660F607C991F99272C
:10069000991F692B4295407F452B9ADF882331F0C3
:1006A0001F5F25961017A0F281E001C080E0DF9166
:1006B000CF911F910F9108958091280288239CF477
:1006C00004C0809127028823B9F08091E80082FF5E
:1006D000F8CF8091E8008B778093E80008958091AF
:1006E0002702882349F08091E80080FFF8CF8091AD
:1006F000E8008E778093E80008954091E4005091DF
:10070000E50024E68091EC0080FF24C08091E800A1
:1007100080FD1EC080912702882311F482E0089595
:10072000853011F483E008958091EB0085FF02C0CD
:1007300081E008958091E4009091E5008417950789
:1007400009F3222311F484E008952150AC01DACF9B
:1007500080E008958091E80082FFDCCFF9CFEF922E
:10076000FF920F931F934FD056D008ED10E0F80181
:1007700080818F77808380818068808380818F7D76
:10078000808319BC10922702109223021092250236
:100790001092240280EEE82EF12CF70180818B7FED
:1007A0008083F80180818160808380E060E042E0A6
:1007B0000FDFE1EEF0E080818E7F8083E2EEF0E0FB
:1007C000808181608083808188608083F70180815F
:1007D0008E7F8083F8018081806180831F910F91DB
:1007E000FF90EF900895E8EDF0E080818F7E8083A8
:1007F000E7EDF0E080818160808384E082BF81E06A
:1008000080932602ACCFE8EDF0E080818E7F80837C
:100810001092E20008951092DA001092E10008951B
:100820001F920F920FB60F9211241F932F933F9395
:100830004F935F936F937F938F939F93AF93BF93E8
:10084000EF93FF931091E9008091EC001092E90082
:100850008091F000877F8093F0007894E7D0109229
:10086000E9008091F00088608093F0001F70109381
:10087000E900FF91EF91BF91AF919F918F917F918F
:100880006F915F914F913F912F911F910F900FBEEC
:100890000F901F9018951F920F920FB60F92112470
:1008A0002F933F934F935F936F937F938F939F9378
:1008B000AF93BF93EF93FF938091E10082FF0AC053
:1008C0008091E20082FF06C08091E1008B7F8093DF
:1008D000E1001CD28091DA0080FF1DC08091D80019
:1008E00080FF19C08091DA008E7F8093DA008091BA
:1008F000D90080FF0CC080E189BD82E189BD09B4C7
:1009000000FEFDCF81E0809327023FDC04C019BCCC
:10091000109227023BDC8091E10080FF18C080919B
:10092000E20080FF14C08091E2008E7F8093E2009D
:100930008091E20080618093E2008091D800806223
:100940008093D80019BC85E080932702DFD1809185
:10095000E10084FF2FC08091E20084FF2BC080E182
:1009600089BD82E189BD09B400FEFDCF8091D80028
:100970008F7D8093D8008091E1008F7E8093E1008D
:100980008091E2008F7E8093E2008091E20081609E
:100990008093E20080912302882311F084E007C055
:1009A0008091E30087FD02C081E001C083E0809375
:1009B0002702ACD18091E10083FF27C08091E20043
:1009C00083FF23C08091E100877F8093E10082E074
:1009D00080932702109223028091E1008E7F809302
:1009E000E1008091E2008E7F8093E2008091E2003E
:1009F00080618093E20080E060E042E0E9DD809188
:100A0000F00088608093F00081D1FF91EF91BF9159
:100A1000AF919F918F917F916F915F914F913F9196
:100A20002F910F900FBE0F901F9018951F93DF937B
:100A3000CF93CDB7DEB7AC970FB6F894DEBF0FBE3D
:100A4000CDBFE8E2F2E08091F100819322E0E03353
:100A5000F207C9F7B4DC8091E80083FF3FC18091C1
:100A6000280230912902353009F48DC0363040F427
:100A70003130E1F1313070F0333009F02FC136C040
:100A8000383009F4FDC0393009F40CC1363009F0B2
:100A900025C19CC0803821F0823809F01FC108C0F0
:100AA00090912402809125028823B1F0926014C0B5
:100AB00080912C028F70873008F010C18093E9007C
:100AC0008091EB0090E025E0969587952A95E1F7D7
:100AD000982F91701092E9008091E800877F8093B1
:100AE000E8009093F1001092F100D5C0882319F02E
:100AF000823009F0F3C090E08F719070009721F080
:100B0000029709F0EBC00CC080912A02813009F0F5
:100B1000E5C010922502333081F5809325022DC067
:100B200080912A02882349F520912C022F70822F70
:100B30008150863008F0D2C02093E9008091EB000C
:100B400080FF1BC0333021F48091EB00806213C022
:100B50008091EB0080618093EB0081E090E002C027
:100B6000880F991F2A95E2F78093EA001092EA0015
:100B70008091EB0088608093EB001092E9008091F7
:100B8000E800877F8BC0882309F0A8C010912A0253
:100B90001F778091E3008078812B8093E300809120
:100BA000E800877F8093E80087DD8091E80080FF80
:100BB000FCCF8091E30080688093E300112311F45F
:100BC00082E001C083E08093270288C08058823091
:100BD00008F084C080912A0290912B0223E08C3D82
:100BE000920709F033C083E08C838AE28B837FB75E
:100BF000F894DE0115966EE040E050E011E2E62F39
:100C0000F0E010935700849140FF03C082958F70ED
:100C10006F5F8F70282F30E08A3018F0C901C796B7
:100C200002C0C901C0968D939D934F5F5F4F4431C1
:100C3000510529F77FBF8091E800877F8093E80006
:100C4000CE0103966AE270E0EEDB14C060912C02E4
:100C500070912D02AE014F5F5F4FB7DBBC01009773
:100C600009F43CC08091E800877F8093E800898187
:100C70009A8143DC8091E8008B778093E8002EC056
:100C8000803861F58091E800877F8093E80080914B
:100C900023028093F1008091E8008E778093E80032
:100CA0000BDD1CC08823D1F490912A029230B0F45D
:100CB0008091E800877F8093E80090932302FCDC1A
:100CC00080912302882331F48091E30087FD02C0E4
:100CD00081E001C084E08093270274DB8091E8000A
:100CE00083FF0AC08091E800877F8093E8008091AD
:100CF000EB0080628093EB00AC960FB6F894DEBFF9
:100D00000FBECDBFCF91DF911F91089508951F931E
:100D100080912702882371F01091E9008091EC0006
:100D20001092E9008091E80083FF01C07FDE1F7010
:100D30001093E9001F910895FC01809127028430EF
:100D400099F584899589A689B7890097A105B10588
:100D500059F186818F708093E9008091E80082FFCD
:100D600023C04091F3002091F200942F80E030E006
:100D7000822B932B892B19F46FEF7FEF04C08091A6
:100D8000F100682F70E04091F3002091F200942F61
:100D900080E030E0822B932B892B41F48091E80096
:100DA0008B778093E80002C06FEF7FEFCB0108954F
:100DB000FB012EE0DB011D922A95E9F723E0238356
:100DC00029E637E0318720872BEE36E0338722870C
:100DD000958784870895FC0184859585ADDF9C0106
:100DE00097FF02C02EEF3FEFC90108950895FC015F
:100DF00080912702843051F584899589A689B78925
:100E00000097A105B10511F181818F708093E900F0
:100E10004091F3002091F200942F80E030E0822B8B
:100E2000932B892BA9F09091E8008091E8008E77B0
:100E30008093E80095FD0CC060DC982F882349F46E
:100E40008091E8008E778093E80003C092E001C0B3
:100E500090E0892F0895FC0180912702843091F45D
:100E600084899589A689B7890097A105B10551F0B4
:100E700081818F708093E9008091E80080FF02C03B
:100E8000CF01B5CF08951F93FC01162F8091270243
:100E90008430E1F484899589A689B7890097A105F2
:100EA000B105A1F081818F708093E9008091E80005
:100EB00085FD08C08091E8008E778093E8001DDCF6
:100EC000882329F41093F10080E001C082E01F9193
:100ED0000895282FFB0184859585622FD4DF882310
:100EE00019F420E030E002C02FEF3FEFC901089570
:100EF000CF93DF93EC014096FC018BE0DF011D9264
:100F00008A95E9F782E08C83898783E08E87CE011A
:100F1000019661E095DB882371F0CE01069661E0D1
:100F20008FDB882341F0CE010B9661E089DB8823BB
:100F300019F081E001C080E0DF91CF910895CF9357
:100F4000DF93EC018091E80083FFA3C0888190E0EB
:100F500020912C0230912D022817390709F099C0F1
:100F600080912902813269F0823220F4803209F0C6
:100F700090C03CC0823209F46BC0833209F089C052
:100F80007AC080912802813A09F083C08091E800FC
:100F9000877F8093E8008091E80080FFFCCF8C89F8
:100FA0009D89AE89BF898093F100292F3A2F4B2F5D
:100FB00055272093F1009D01442755272093F100E8
:100FC0008B2F9927AA27BB278093F100888D8093C8
:100FD000F100898D8093F1008A8D8093F1008091DA
:100FE000E8008E778093E80067DB53C08091280289
:100FF000813209F04EC08091E800877F8093E8003D
:1010000005C080912702882309F443C08091E8003D
:1010100082FFF7CF8091F1009091F1002091F100D3
:101020003091F1008C8B9D8B2E8B3F8B8091F1004A
:10103000888F8091F100898F8091F1008A8F809153
:10104000E8008B778093E80037DBCE01CFDE21C04C
:10105000809128028132E9F48091E800877F8093B3
:10106000E8002ADB80912A0290912B02998B888BD1
:10107000CE018DD80EC080912802813251F480912A
:10108000E800877F8093E80017DBCE0160912A0299
:10109000ADDEDF91CF910895DF92EF92FF920F9333
:1010A0001F93CF93DF93EC016C597F4F882777FD17
:1010B0008095982FB8D47B018C0120E030E040E48B
:1010C0005FE33DD520E030E048E452E411D478D429
:1010D000C617D70714F4DD2418C0DD24C801B701F2
:1010E00020E030E040EA5FE32AD520E030E048E449
:1010F00052E4FED320E030E040E85FE395D360D4D3
:101100006C177D0714F0DD24D3948D2D90E0DF91D2
:10111000CF911F910F91FF90EF90DF900895DF9294
:10112000EF92FF920F931F93CF93DF93EC016456DE
:101130007040882777FD8095982F75D47B018C01AE
:1011400020E030E040E45FE3FAD420E030E048E41F
:1011500052E4CED335D4C617D70714F4DD2418C013
:10116000DD24C801B70120E030E040EA5FE3E7D4C6
:1011700020E030E048E452E4BBD320E030E040E837
:101180005FE352D31DD46C177D0714F0DD24D39494
:101190008D2D90E0DF91CF911F910F91FF90EF90F7
:1011A000DF9008951F920F920FB60F9211242F9384
:1011B0003F938F939F93EF93FF932CB122952695A6
:1011C00026952370209521708091400190914101D6
:1011D0000196909341018093400180913F018536B3
:1011E00018F086E080933E0180913E018430C9F181
:1011F000853030F4823059F0833009F065C017C073
:10120000853009F454C0863009F05EC057C02223EF
:1012100009F05EC0809140019091410184369105B2
:1012200008F447C010920C0210923F011CC02130FC
:1012300009F04CC080913F01E82FF0E0209140017F
:1012400030914101EE0FFF1FEE5BFE4F3183208393
:101250008F5F80933F01109241011092400184E022
:1012600023C02223C9F480913F01E82FF0E02091B0
:10127000400130914101EE0FFF1FEE5BFE4F3183C5
:1012800020838F5F80933F011092410110924001B3
:1012900083E080933E011AC080914001909141010A
:1012A00085369105A8F085E080933E0111C0222388
:1012B00079F4109241011092400108C081E08093BE
:1012C0000C0285E080933E01222311F4479A01C06D
:1012D0004798FF91EF919F918F913F912F910F90A0
:1012E0000FBE0F901F9018951092C00081E0809360
:1012F000C1001092C2001092C3001092C400EFEB24
:10130000F0E083E0808380E28093D100108210922D
:10131000BF001092BE0008950895F894E5DF84E0C0
:1013200080937200789482E080933E0110923F0196
:10133000089582E080933E0110923F0108958F92BC
:101340009F92AF92BF92CF92DF92EF92FF920F9354
:101350001F93CF93DF934B0180913F01863108F4B7
:1013600074C0DB011896ED91FC91199782819381ED
:1013700060E679E091DE892B09F467C0EE24FF2452
:101380008701C2E0D0E063E0C62ED12C48C0CE0178
:10139000880F991FD4011896ED91FC911997E80FC9
:1013A000F91F8081918168E572E0B9DE892B11F423
:1013B000E6013CC05601AA0CBB1CD4011896ED9165
:1013C000FC911997EA0DFB1D8081918160EB74E01F
:1013D00063DE892B69F0EE0CFF1C001F111F81E0FA
:1013E00090E0A0E0B0E0E82AF92A0A2B1B2B12C0FB
:1013F000D4011896ED91FC911997EA0DFB1D80819F
:10140000918168E572E048DE892BF9F0EE0CFF1C53
:10141000001F111F2296E2E0F0E0CE0EDF1E809149
:101420003F0190E0C816D9060CF4B1CF2197D595AD
:10143000C795D4011796DC93CE931697F401E282F8
:10144000F3820483158381E001C080E0DF91CF91B6
:101450001F910F91FF90EF90DF90CF90BF90AF90D2
:101460009F908F900895CF93DF93EC01FB0182E46E
:1014700091E09187808780913F01828713868091D8
:101480000C028487158680913E01853041F4CE019F
:1014900056DF882311F081E003C0CE014ADF80E0EF
:1014A000DF91CF9108959B01AC0190E00AC0822F9B
:1014B0008370980F82E056954795379527958A95C2
:1014C000D1F7211531054105510589F7892F837021
:1014D00008958DE092E020CF0F931F93DF93CF9379
:1014E000CDB7DEB72E970FB6F894DEBF0FBECDBFD7
:1014F0008C018DE092E0BE016F5F7F4FB4DF8823E7
:1015000019F420E030E012C08B819C81AD81BE8156
:10151000B695A79597958795F80180839183A283C7
:10152000B3838DE092E005DF21E030E0C9012E9623
:101530000FB6F894DEBF0FBECDBFCF91DF911F91E4
:101540000F910895EF92FF920F931F93DF93CF9324
:1015500000D000D0CDB7DEB7CE010196BDDF892B1C
:10156000E9F1E980FA800B811C81C801B701737031
:101570008070907069837A838B839C8394DF3AE0D8
:1015800016950795F794E7943A95D1F723E030E064
:1015900040E050E0E222F3220423152390E0A0E093
:1015A000B0E0E816F9060A071B07C1F429813A8161
:1015B0004B815C8131FF10C020953095409550954E
:1015C0003370407050702F5F3F4F4F4F5F4F662713
:1015D0007727621B730B04C0B90102C060E074E09E
:1015E000CB010F900F900F900F90CF91DF911F9133
:1015F0000F91FF90EF9008956E988DE092E08DCE60
:1016000080958EBD0DB407FEFDCF08950F931F93F7
:10161000CF93DF938C019C0197FF04C022273327CF
:10162000281B390BC0E0D0E0C9016AE070E0FED2AF
:10163000FC01E15DFE4F8081FE01E05DFD4F808396
:10164000C9016AE070E0F2D29B01FE01319661159A
:10165000710559F4CF0105C0FC01E05DFD4F10821A
:10166000019684309105C4F304C0EF01E430F10524
:10167000D9F617FF03C080E480933302DF91CF9146
:101680001F910F9108951F920F920FB60F92112480
:101690002F933F934F935F936F937F938F939F937A
:1016A000AF93BF93EF93FF9320910F0281E090E0FF
:1016B00002C0880F991F2A95E2F7A2DFE0910F027E
:1016C000F0E0E05DFD4F80819BDF2898289A8091B3
:1016D0000F028F5F80930F0280910F02843011F40C
:1016E00010920F02FF91EF91BF91AF919F918F9157
:1016F0007F916F915F914F913F912F910F900FBE0E
:101700000F901F9018951F920F920FB60F921124F1
:101710002F933F934F935F936F937F938F939F93F9
:10172000AF93BF93EF93FF934A9B08C04B9902C0BE
:101730008CE401C082E58093120220C04B9B0AC05A
:10174000809112028C34C1F48091100290911102A8
:10175000019709C080911202823571F480911002C4
:101760009091110201969093110280931002809142
:101770001002909111024ADF10921202FF91EF9134
:10178000BF91AF919F918F917F916F915F914F9199
:101790003F912F910F900FBE0F901F90189597FDBE
:1017A00002C0299801C0299A9C0197FF03C0309577
:1017B00021953F4F822F90E090938900809388007D
:1017C000222311F42C9808952C9A089597FD02C0B5
:1017D000289801C0289A9C0197FF03C03095219555
:1017E0003F4F822F90E0909399008093980022239E
:1017F00011F42C9808952C9A08953E9A99E89093A4
:10180000800084E080938100109282009093900089
:101810008093910010929200259A80E090E0BFDFC3
:1018200080E090E0D3CF5058BB27AA270ED04DC1FF
:101830003ED130F043D120F031F49F3F11F41EF43B
:1018400033C10EF4E095E7FB29C1E92F4FD180F3B6
:10185000BA17620773078407950718F071F49EF5AD
:1018600067C10EF4E0950B2EBA2FA02D0B01B90124
:1018700090010C01CA01A0011124FF27591B99F006
:10188000593F50F4503E68F11A16F040A22F232F12
:10189000342F4427585FF3CF469537952795A79562
:1018A000F0405395C9F77EF41F16BA0B620B730B09
:1018B000840BBAF09150A1F0FF0FBB1F661F771F7A
:1018C000881FC2F70EC0BA0F621F731F841F48F42F
:1018D000879577956795B795F7959E3F08F0B3CFB5
:1018E0009395880F08F09927EE0F9795879508959F
:1018F0000CD0EBC0E3D040F0DAD030F021F45F3F01
:1019000019F0CCC0511115C1CFC0F0D098F3992374
:10191000C9F35523B1F3951B550BBB27AA276217B3
:101920007307840738F09F5F5F4F220F331F441FF8
:10193000AA1FA9F333D00E2E3AF0E0E830D0915030
:101940005040E695001CCAF729D0FE2F27D0660F1D
:10195000771F881FBB1F261737074807AB07B0E85C
:1019600009F0BB0B802DBF01FF2793585F4F2AF072
:101970009E3F510568F092C0DCC05F3FECF3983E9B
:10198000DCF3869577956795B795F7959F5FC9F7CF
:10199000880F911D9695879597F90895E1E0660F58
:1019A000771F881FBB1F621773078407BA0720F0D1
:1019B000621B730B840BBA0BEE1F88F7E09508953A
:1019C00004D06894B111B5C0089598D088F09F579D
:1019D00090F0B92F9927B751A0F0D1F0660F771F7B
:1019E000881F991F1AF0BA95C9F712C0B13081F05B
:1019F0009FD0B1E008959CC0672F782F8827B85FEB
:101A000039F0B93FCCF3869577956795B395D9F7BB
:101A10003EF490958095709561957F4F8F4F9F4FC5
:101A20000895E89409C097FB3EF4909580957095D1
:101A300061957F4F8F4F9F4F9923A9F0F92F96E91A
:101A4000BB279395F695879577956795B795F1118F
:101A5000F8CFFAF4BB0F11F460FF1BC06F5F7F4F2C
:101A60008F4F9F4F16C0882311F096E911C077233E
:101A700021F09EE8872F762F05C0662371F096E847
:101A8000862F70E060E02AF09A95660F771F881F16
:101A9000DAF7880F9695879597F9089597F99F67D4
:101AA00080E870E060E008959FEF80EC08950024E6
:101AB0000A941616170618060906089500240A94B3
:101AC00012161306140605060895092E0394000C39
:101AD00011F4882352F0BB0F40F4BF2B11F460FFC8
:101AE00004C06F5F7F4F8F4F9F4F089557FD9058F1
:101AF000440F551F59F05F3F71F04795880F97FBD2
:101B0000991F61F09F3F79F087950895121613068B
:101B10001406551FF2CF4695F1DF08C016161706BA
:101B20001806991FF1CF86957105610508940895EF
:101B3000E894BB2766277727CB0197F908950BD048
:101B4000C4CFB5DF28F0BADF18F0952309F0A6CF8F
:101B5000ABCF1124EECFCADFA0F3959FD1F3950F41
:101B600050E0551F629FF001729FBB27F00DB11D21
:101B7000639FAA27F00DB11DAA1F649F6627B00DB1
:101B8000A11D661F829F2227B00DA11D621F739F9A
:101B9000B00DA11D621F839FA00D611D221F749FA8
:101BA0003327A00D611D231F849F600D211D822FEF
:101BB000762F6A2F11249F5750408AF0E1F0882336
:101BC0004AF0EE0FFF1FBB1F661F771F881F915043
:101BD0005040A9F79E3F510570F060CFAACF5F3FFC
:101BE000ECF3983EDCF3869577956795B795F79576
:101BF000E7959F5FC1F7FE2B880F911D96958795FE
:101C000097F90895AA1BBB1B51E107C0AA1FBB1F70
:101C1000A617B70710F0A61BB70B881F991F5A9578
:101C2000A9F780959095BC01CD01089597FB092EE9
:101C300007260AD077FD04D0E5DF06D000201AF48D
:101C4000709561957F4F0895F6F7909581959F4F18
:101C50000895EE0FFF1F0590F491E02D099485FD86
:101C60004AC28062911147C281568A51E0F70895B5
:101C70000F931F93CF93DF938C01EB018B8181FF37
:101C80001BC082FF0DC02E813F818C819D81281752
:101C9000390764F4E881F9810193F983E88306C088
:101CA000E885F985802F0995892B31F48E819F81F4
:101CB00001969F838E8302C00FEF1FEFC801DF9153
:101CC000CF911F910F910895EF92FF920F931F9361
:101CD000CF93DF937C018B01DB0113968C9181FD07
:101CE00003C0CFEFDFEF13C0C0E0D0E00BC0D801DE
:101CF0001896ED91FC911997B8010995892B11F06F
:101D0000CFEFDFEFF70181917F01882381F7CE01CB
:101D1000CDB7DEB7E6E08EC2AEE0B0E0E1E9FEE0CE
:101D20006FC20D891E8986E08C831A8309838FEF29
:101D30009FE79E838D839E01275E3F4FCE010196D4
:101D40006F89788DA90109D02F813885020F131F63
:101D5000F80110822E96E4E06FC2ABE0B0E0E2EB57
:101D6000FEE040C23C012B015A01FC0117821682A1
:101D7000838181FD03C06FEF7FEFB9C19AE0892EA7
:101D80001E010894211C311CF3012381F20123FD63
:101D9000859123FF81912F01882309F4A5C1853204
:101DA00039F423FD859123FF81912F01853221F4A0
:101DB00090E0B3015DDFE8CF982FFF24EE24992453
:101DC000FFE1FF15D0F09B3269F09C3228F490328D
:101DD00059F0933291F40EC09D3249F0903369F47A
:101DE00041E024C052E0F52A84E0F82A28C098E0B7
:101DF000F92A25C0E0E1FE2A22C0F7FC29C0892F7C
:101E000080538A3070F4F6FE05C0989C902C112403
:101E1000980E15C0E89CE02C1124E80EF0E2FF2A91
:101E20000EC09E3229F4F6FC5FC140E4F42A07C0DC
:101E30009C3619F450E8F52A02C0983649F4F201AC
:101E400023FD959123FF91912F01992309F0B8CF9C
:101E5000892F8554833018F08052833038F444E061
:101E600050E0A40EB51E5FE359830FC0933631F0E6
:101E7000933779F0933509F052C01FC0F501808186
:101E8000898342E050E0A40EB51E610101E010E03C
:101E900011C0F501C080D180F6FC03C06FEF7FEF69
:101EA00002C0692D70E042E050E0A40EB51EC601EC
:101EB00030D18C015FE7F52213C0F501C080D180DD
:101EC000F6FC03C06FEF7FEF02C0692D70E042E0C7
:101ED00050E0A40EB51EC60111D18C0150E8F52AC0
:101EE000F3FE06C018C080E290E0B301C1DEEA94C0
:101EF0008E2D90E008171907B0F30DC0F601F7FC1E
:101F00008591F7FE81916F0190E0B301B1DEE110A0
:101F1000EA94015010400115110581F7E2C0943692
:101F200011F0993661F5F7FE08C0F5012081318185
:101F30004281538184E090E00AC0F5018081918163
:101F40009C01442737FD4095542F82E090E0A80E75
:101F5000B91E9FE6F92257FF09C05095409530956C
:101F600021953F4F4F4F5F4FE0E8FE2ACA01B9016C
:101F7000A1012AE030E0D8D0D82ED2183FC0953742
:101F800029F41F2D1F7E2AE030E01DC01F2D197F70
:101F90009F3661F0903720F4983509F0A5C00FC046
:101FA000903739F0983709F09FC004C028E030E03E
:101FB0000AC0106114FD146020E130E004C014FD7B
:101FC000166020E132E017FF08C0F50160817181E1
:101FD0008281938144E050E008C0F50180819181C5
:101FE000BC0180E090E042E050E0A40EB51EA101EB
:101FF0009BD0D82ED2188FE7F82EF122F6FE0BC018
:102000005EEFF522D91438F4F4FE07C0F2FC05C0E7
:102010008FEEF82202C01D2D01C0192DF4FE0DC057
:10202000FE01ED0DF11D8081803319F499EEF92246
:1020300008C01F5FF2FE05C003C08F2D867809F02F
:102040001F5F0F2DF3FC13C0F0FE0EC01E1510F025
:102050009D2C0AC09D2C9E0C911A1E2D05C080E25D
:1020600090E0B30105DE1F5F1E15C8F304C01E1506
:1020700010F4E11A01C0EE2404FF0EC080E390E0EA
:10208000B301F6DD02FF1BC001FD03C088E790E04D
:102090000EC088E590E00BC0802F867881F001FFAC
:1020A00002C08BE201C080E2F7FC8DE290E0B30158
:1020B000DFDD05C080E390E0B301DADD9A94D91446
:1020C000C8F3DA94F101ED0DF11D808190E0B301C8
:1020D000CFDDDD20B1F705C080E290E0B301C8DDBF
:1020E000EA94EE20C9F750CEF30166817781CB01E7
:1020F0002B96E2E193C0992788270895FC0105906B
:10210000615070400110D8F7809590958E0F9F1FF9
:102110000895FC016150704001900110D8F780953E
:1021200090958E0F9F1F0895FA01AA27283051F12C
:10213000203181F1E8946F936E7F6E5F7F4F8F4FF8
:102140009F4FAF4FB1E03ED0B4E03CD0670F781F57
:10215000891F9A1FA11D680F791F8A1F911DA11D3C
:102160006A0F711D811D911DA11D20D009F4689475
:102170003F912AE0269F11243019305D3193DEF61D
:10218000CF010895462F4770405D4193B3E00FD0D3
:10219000C9F7F6CF462F4F70405D4A3318F0495DBE
:1021A00031FD4052419302D0A9F7EACFB4E0A695A1
:1021B0009795879577956795BA95C9F700976105C3
:1021C000710508959B01AC010A2E06945795479519
:1021D00037952795BA95C9F7620F731F841F951F0E
:1021E000A01D08952F923F924F925F926F927F921F
:1021F0008F929F92AF92BF92CF92DF92EF92FF9217
:102200000F931F93CF93DF93CDB7DEB7CA1BDB0BC2
:102210000FB6F894DEBF0FBECDBF09942A88398867
:1022200048885F846E847D848C849B84AA84B9846E
:10223000C884DF80EE80FD800C811B81AA81B9817A
:10224000CE0FD11D0FB6F894DEBF0FBECDBFED018E
:062250000895F894FFCF91
:102256002564200D0A000083100000010410000010
:1022660001820800000100000000000000000000DC
:102276000000010000040506072021222324253F33
:0A228600065B4F666D7D277F6F0039
:00000001FF
